{
  "contractName": "ERC1155",
  "abi": [
    {
      "inputs": [
        {
          "internalType": "string",
          "name": "uri_",
          "type": "string"
        }
      ],
      "stateMutability": "nonpayable",
      "type": "constructor"
    },
    {
      "anonymous": false,
      "inputs": [
        {
          "indexed": true,
          "internalType": "address",
          "name": "account",
          "type": "address"
        },
        {
          "indexed": true,
          "internalType": "address",
          "name": "operator",
          "type": "address"
        },
        {
          "indexed": false,
          "internalType": "bool",
          "name": "approved",
          "type": "bool"
        }
      ],
      "name": "ApprovalForAll",
      "type": "event"
    },
    {
      "anonymous": false,
      "inputs": [
        {
          "indexed": true,
          "internalType": "address",
          "name": "operator",
          "type": "address"
        },
        {
          "indexed": true,
          "internalType": "address",
          "name": "from",
          "type": "address"
        },
        {
          "indexed": true,
          "internalType": "address",
          "name": "to",
          "type": "address"
        },
        {
          "indexed": false,
          "internalType": "uint256[]",
          "name": "ids",
          "type": "uint256[]"
        },
        {
          "indexed": false,
          "internalType": "uint256[]",
          "name": "values",
          "type": "uint256[]"
        }
      ],
      "name": "TransferBatch",
      "type": "event"
    },
    {
      "anonymous": false,
      "inputs": [
        {
          "indexed": true,
          "internalType": "address",
          "name": "operator",
          "type": "address"
        },
        {
          "indexed": true,
          "internalType": "address",
          "name": "from",
          "type": "address"
        },
        {
          "indexed": true,
          "internalType": "address",
          "name": "to",
          "type": "address"
        },
        {
          "indexed": false,
          "internalType": "uint256",
          "name": "id",
          "type": "uint256"
        },
        {
          "indexed": false,
          "internalType": "uint256",
          "name": "value",
          "type": "uint256"
        }
      ],
      "name": "TransferSingle",
      "type": "event"
    },
    {
      "anonymous": false,
      "inputs": [
        {
          "indexed": false,
          "internalType": "string",
          "name": "value",
          "type": "string"
        },
        {
          "indexed": true,
          "internalType": "uint256",
          "name": "id",
          "type": "uint256"
        }
      ],
      "name": "URI",
      "type": "event"
    },
    {
      "inputs": [
        {
          "internalType": "uint256",
          "name": "",
          "type": "uint256"
        }
      ],
      "name": "creators",
      "outputs": [
        {
          "internalType": "address",
          "name": "",
          "type": "address"
        }
      ],
      "stateMutability": "view",
      "type": "function"
    },
    {
      "inputs": [
        {
          "internalType": "address",
          "name": "",
          "type": "address"
        },
        {
          "internalType": "address",
          "name": "",
          "type": "address"
        },
        {
          "internalType": "uint256[]",
          "name": "",
          "type": "uint256[]"
        },
        {
          "internalType": "uint256[]",
          "name": "",
          "type": "uint256[]"
        },
        {
          "internalType": "bytes",
          "name": "",
          "type": "bytes"
        }
      ],
      "name": "onERC1155BatchReceived",
      "outputs": [
        {
          "internalType": "bytes4",
          "name": "",
          "type": "bytes4"
        }
      ],
      "stateMutability": "nonpayable",
      "type": "function"
    },
    {
      "inputs": [
        {
          "internalType": "address",
          "name": "",
          "type": "address"
        },
        {
          "internalType": "address",
          "name": "",
          "type": "address"
        },
        {
          "internalType": "uint256",
          "name": "",
          "type": "uint256"
        },
        {
          "internalType": "uint256",
          "name": "",
          "type": "uint256"
        },
        {
          "internalType": "bytes",
          "name": "",
          "type": "bytes"
        }
      ],
      "name": "onERC1155Received",
      "outputs": [
        {
          "internalType": "bytes4",
          "name": "",
          "type": "bytes4"
        }
      ],
      "stateMutability": "nonpayable",
      "type": "function"
    },
    {
      "inputs": [
        {
          "internalType": "bytes4",
          "name": "interfaceId",
          "type": "bytes4"
        }
      ],
      "name": "supportsInterface",
      "outputs": [
        {
          "internalType": "bool",
          "name": "",
          "type": "bool"
        }
      ],
      "stateMutability": "view",
      "type": "function"
    },
    {
      "inputs": [
        {
          "internalType": "string",
          "name": "_newURI",
          "type": "string"
        }
      ],
      "name": "setURI",
      "outputs": [],
      "stateMutability": "nonpayable",
      "type": "function"
    },
    {
      "inputs": [
        {
          "internalType": "uint256",
          "name": "_id",
          "type": "uint256"
        }
      ],
      "name": "uri",
      "outputs": [
        {
          "internalType": "string",
          "name": "",
          "type": "string"
        }
      ],
      "stateMutability": "view",
      "type": "function"
    },
    {
      "inputs": [
        {
          "internalType": "address",
          "name": "account",
          "type": "address"
        },
        {
          "internalType": "uint256",
          "name": "id",
          "type": "uint256"
        }
      ],
      "name": "balanceOf",
      "outputs": [
        {
          "internalType": "uint256",
          "name": "",
          "type": "uint256"
        }
      ],
      "stateMutability": "view",
      "type": "function"
    },
    {
      "inputs": [
        {
          "internalType": "address[]",
          "name": "accounts",
          "type": "address[]"
        },
        {
          "internalType": "uint256[]",
          "name": "ids",
          "type": "uint256[]"
        }
      ],
      "name": "balanceOfBatch",
      "outputs": [
        {
          "internalType": "uint256[]",
          "name": "",
          "type": "uint256[]"
        }
      ],
      "stateMutability": "view",
      "type": "function"
    },
    {
      "inputs": [
        {
          "internalType": "address",
          "name": "operator",
          "type": "address"
        },
        {
          "internalType": "bool",
          "name": "approved",
          "type": "bool"
        }
      ],
      "name": "setApprovalForAll",
      "outputs": [],
      "stateMutability": "nonpayable",
      "type": "function"
    },
    {
      "inputs": [
        {
          "internalType": "address",
          "name": "account",
          "type": "address"
        },
        {
          "internalType": "address",
          "name": "operator",
          "type": "address"
        }
      ],
      "name": "isApprovedForAll",
      "outputs": [
        {
          "internalType": "bool",
          "name": "",
          "type": "bool"
        }
      ],
      "stateMutability": "view",
      "type": "function"
    },
    {
      "inputs": [
        {
          "internalType": "address",
          "name": "from",
          "type": "address"
        },
        {
          "internalType": "address",
          "name": "to",
          "type": "address"
        },
        {
          "internalType": "uint256",
          "name": "id",
          "type": "uint256"
        },
        {
          "internalType": "uint256",
          "name": "amount",
          "type": "uint256"
        },
        {
          "internalType": "bytes",
          "name": "data",
          "type": "bytes"
        }
      ],
      "name": "safeTransferFrom",
      "outputs": [],
      "stateMutability": "nonpayable",
      "type": "function"
    },
    {
      "inputs": [
        {
          "internalType": "address",
          "name": "from",
          "type": "address"
        },
        {
          "internalType": "address",
          "name": "to",
          "type": "address"
        },
        {
          "internalType": "uint256[]",
          "name": "ids",
          "type": "uint256[]"
        },
        {
          "internalType": "uint256[]",
          "name": "amounts",
          "type": "uint256[]"
        },
        {
          "internalType": "bytes",
          "name": "data",
          "type": "bytes"
        }
      ],
      "name": "safeBatchTransferFrom",
      "outputs": [],
      "stateMutability": "nonpayable",
      "type": "function"
    },
    {
      "inputs": [
        {
          "internalType": "uint256",
          "name": "_tokenId",
          "type": "uint256"
        },
        {
          "internalType": "string",
          "name": "_newURI",
          "type": "string"
        }
      ],
      "name": "setCustomURI",
      "outputs": [],
      "stateMutability": "nonpayable",
      "type": "function"
    },
    {
      "inputs": [
        {
          "internalType": "address",
          "name": "_to",
          "type": "address"
        },
        {
          "internalType": "uint256[]",
          "name": "_ids",
          "type": "uint256[]"
        }
      ],
      "name": "setCreator",
      "outputs": [],
      "stateMutability": "nonpayable",
      "type": "function"
    },
    {
      "inputs": [
        {
          "internalType": "address[]",
          "name": "targets",
          "type": "address[]"
        },
        {
          "internalType": "uint256",
          "name": "id",
          "type": "uint256"
        },
        {
          "internalType": "uint256",
          "name": "amount",
          "type": "uint256"
        }
      ],
      "name": "airdrop",
      "outputs": [],
      "stateMutability": "nonpayable",
      "type": "function"
    },
    {
      "inputs": [
        {
          "internalType": "address",
          "name": "to",
          "type": "address"
        },
        {
          "internalType": "uint256",
          "name": "id",
          "type": "uint256"
        },
        {
          "internalType": "uint256",
          "name": "amount",
          "type": "uint256"
        },
        {
          "internalType": "bytes",
          "name": "data",
          "type": "bytes"
        }
      ],
      "name": "mint",
      "outputs": [],
      "stateMutability": "nonpayable",
      "type": "function"
    },
    {
      "inputs": [
        {
          "internalType": "address",
          "name": "account",
          "type": "address"
        },
        {
          "internalType": "uint256",
          "name": "id",
          "type": "uint256"
        },
        {
          "internalType": "uint256",
          "name": "amount",
          "type": "uint256"
        }
      ],
      "name": "burn",
      "outputs": [],
      "stateMutability": "nonpayable",
      "type": "function"
    },
    {
      "inputs": [
        {
          "internalType": "address",
          "name": "account",
          "type": "address"
        },
        {
          "internalType": "uint256[]",
          "name": "ids",
          "type": "uint256[]"
        },
        {
          "internalType": "uint256[]",
          "name": "amounts",
          "type": "uint256[]"
        }
      ],
      "name": "burnBatch",
      "outputs": [],
      "stateMutability": "nonpayable",
      "type": "function"
    }
  ],
  "bytecode": "0x60806040523480156200001157600080fd5b506040516200413b3803806200413b8339818101604052810190620000379190620001ce565b62000048816200009060201b60201c565b33600560006101000a81548173ffffffffffffffffffffffffffffffffffffffff021916908373ffffffffffffffffffffffffffffffffffffffff1602179055505062000383565b8060049080519060200190620000a8929190620000ac565b5050565b828054620000ba90620002a8565b90600052602060002090601f016020900481019282620000de57600085556200012a565b82601f10620000f957805160ff19168380011785556200012a565b828001600101855582156200012a579182015b82811115620001295782518255916020019190600101906200010c565b5b5090506200013991906200013d565b5090565b5b80821115620001585760008160009055506001016200013e565b5090565b6000620001736200016d846200023c565b62000213565b9050828152602081018484840111156200018c57600080fd5b6200019984828562000272565b509392505050565b600082601f830112620001b357600080fd5b8151620001c58482602086016200015c565b91505092915050565b600060208284031215620001e157600080fd5b600082015167ffffffffffffffff811115620001fc57600080fd5b6200020a84828501620001a1565b91505092915050565b60006200021f62000232565b90506200022d8282620002de565b919050565b6000604051905090565b600067ffffffffffffffff8211156200025a576200025962000343565b5b620002658262000372565b9050602081019050919050565b60005b838110156200029257808201518184015260208101905062000275565b83811115620002a2576000848401525b50505050565b60006002820490506001821680620002c157607f821691505b60208210811415620002d857620002d762000314565b5b50919050565b620002e98262000372565b810181811067ffffffffffffffff821117156200030b576200030a62000343565b5b80604052505050565b7f4e487b7100000000000000000000000000000000000000000000000000000000600052602260045260246000fd5b7f4e487b7100000000000000000000000000000000000000000000000000000000600052604160045260246000fd5b6000601f19601f8301169050919050565b613da880620003936000396000f3fe608060405234801561001057600080fd5b50600436106101155760003560e01c8063a22cb465116100a2578063d2a6b51a11610071578063d2a6b51a146102fe578063e985e9c51461031a578063f23a6e611461034a578063f242432a1461037a578063f5298aca1461039657610115565b8063a22cb46514610266578063a496dedf14610282578063bc197c811461029e578063cd53d08e146102ce57610115565b80632eb2c2d6116100e95780632eb2c2d6146101c65780633adf80b4146101e25780634e1273f4146101fe5780636b20c4541461022e578063731133e91461024a57610115565b8062fdd58e1461011a57806301ffc9a71461014a57806302fe53051461017a5780630e89341c14610196575b600080fd5b610134600480360381019061012f9190612906565b6103b2565b6040516101419190613328565b60405180910390f35b610164600480360381019061015f9190612ae4565b61047c565b60405161017191906130b0565b60405180910390f35b610194600480360381019061018f9190612b36565b61055e565b005b6101b060048036038101906101ab9190612b77565b6105fa565b6040516101bd91906130e6565b60405180910390f35b6101e060048036038101906101db91906126a9565b610826565b005b6101fc60048036038101906101f79190612ba0565b6108bb565b005b61021860048036038101906102139190612a78565b6109c1565b6040516102259190613057565b60405180910390f35b6102486004803603810190610243919061284b565b610b72565b005b610264600480360381019061025f9190612991565b610b77565b005b610280600480360381019061027b91906128ca565b610c2b565b005b61029c60048036038101906102979190612a0c565b610d97565b005b6102b860048036038101906102b391906126a9565b610ecf565b6040516102c591906130cb565b60405180910390f35b6102e860048036038101906102e39190612b77565b610ee4565b6040516102f59190612f7a565b60405180910390f35b610318600480360381019061031391906127f7565b610f17565b005b610334600480360381019061032f919061266d565b610ffb565b60405161034191906130b0565b60405180910390f35b610364600480360381019061035f9190612768565b61108f565b60405161037191906130cb565b60405180910390f35b610394600480360381019061038f9190612768565b6110a4565b005b6103b060048036038101906103ab9190612942565b611139565b005b60008073ffffffffffffffffffffffffffffffffffffffff168373ffffffffffffffffffffffffffffffffffffffff161415610423576040517f08c379a000000000000000000000000000000000000000000000000000000000815260040161041a90613148565b60405180910390fd5b6001600083815260200190815260200160002060008473ffffffffffffffffffffffffffffffffffffffff1673ffffffffffffffffffffffffffffffffffffffff16815260200190815260200160002054905092915050565b60007fd9b67a26000000000000000000000000000000000000000000000000000000007bffffffffffffffffffffffffffffffffffffffffffffffffffffffff1916827bffffffffffffffffffffffffffffffffffffffffffffffffffffffff1916148061054757507f0e89341c000000000000000000000000000000000000000000000000000000007bffffffffffffffffffffffffffffffffffffffffffffffffffffffff1916827bffffffffffffffffffffffffffffffffffffffffffffffffffffffff1916145b80610557575061055682611197565b5b9050919050565b600560009054906101000a900473ffffffffffffffffffffffffffffffffffffffff1673ffffffffffffffffffffffffffffffffffffffff163373ffffffffffffffffffffffffffffffffffffffff16146105ee576040517f08c379a00000000000000000000000000000000000000000000000000000000081526004016105e590613268565b60405180910390fd5b6105f781611211565b50565b60606106058261122b565b610644576040517f08c379a000000000000000000000000000000000000000000000000000000000815260040161063b90613228565b60405180910390fd5b6000600360008481526020019081526020016000208054610664906135c8565b80601f0160208091040260200160405190810160405280929190818152602001828054610690906135c8565b80156106dd5780601f106106b2576101008083540402835291602001916106dd565b820191906000526020600020905b8154815290600101906020018083116106c057829003601f168201915b505050505090506000815111156107925760036000848152602001908152602001600020805461070c906135c8565b80601f0160208091040260200160405190810160405280929190818152602001828054610738906135c8565b80156107855780601f1061075a57610100808354040283529160200191610785565b820191906000526020600020905b81548152906001019060200180831161076857829003601f168201915b5050505050915050610821565b6004805461079f906135c8565b80601f01602080910402602001604051908101604052809291908181526020018280546107cb906135c8565b80156108185780601f106107ed57610100808354040283529160200191610818565b820191906000526020600020905b8154815290600101906020018083116107fb57829003601f168201915b50505050509150505b919050565b843373ffffffffffffffffffffffffffffffffffffffff168173ffffffffffffffffffffffffffffffffffffffff16148061086757506108668133610ffb565b5b6108a6576040517f08c379a000000000000000000000000000000000000000000000000000000000815260040161089d906131c8565b60405180910390fd5b6108b38686868686611296565b505050505050565b813373ffffffffffffffffffffffffffffffffffffffff1660008083815260200190815260200160002060009054906101000a900473ffffffffffffffffffffffffffffffffffffffff1673ffffffffffffffffffffffffffffffffffffffff161461095c576040517f08c379a000000000000000000000000000000000000000000000000000000000815260040161095390613188565b60405180910390fd5b816003600085815260200190815260200160002090805190602001906109839291906122f2565b50827f6bb7ff708619ba0610cba295a58592e0451dee2622938c8755667688daf3529b836040516109b491906130e6565b60405180910390a2505050565b60608151835114610a07576040517f08c379a00000000000000000000000000000000000000000000000000000000081526004016109fe906132c8565b60405180910390fd5b6000835167ffffffffffffffff811115610a4a577f4e487b7100000000000000000000000000000000000000000000000000000000600052604160045260246000fd5b604051908082528060200260200182016040528015610a785781602001602082028036833780820191505090505b50905060005b8451811015610b6757610b11858281518110610ac3577f4e487b7100000000000000000000000000000000000000000000000000000000600052603260045260246000fd5b6020026020010151858381518110610b04577f4e487b7100000000000000000000000000000000000000000000000000000000600052603260045260246000fd5b60200260200101516103b2565b828281518110610b4a577f4e487b7100000000000000000000000000000000000000000000000000000000600052603260045260246000fd5b60200260200101818152505080610b609061362b565b9050610a7e565b508091505092915050565b505050565b823373ffffffffffffffffffffffffffffffffffffffff1660008083815260200190815260200160002060009054906101000a900473ffffffffffffffffffffffffffffffffffffffff1673ffffffffffffffffffffffffffffffffffffffff1614610c18576040517f08c379a0000000000000000000000000000000000000000000000000000000008152600401610c0f90613188565b60405180910390fd5b610c24858585856115f2565b5050505050565b8173ffffffffffffffffffffffffffffffffffffffff163373ffffffffffffffffffffffffffffffffffffffff161415610c9a576040517f08c379a0000000000000000000000000000000000000000000000000000000008152600401610c91906132a8565b60405180910390fd5b80600260003373ffffffffffffffffffffffffffffffffffffffff1673ffffffffffffffffffffffffffffffffffffffff16815260200190815260200160002060008473ffffffffffffffffffffffffffffffffffffffff1673ffffffffffffffffffffffffffffffffffffffff16815260200190815260200160002060006101000a81548160ff0219169083151502179055508173ffffffffffffffffffffffffffffffffffffffff163373ffffffffffffffffffffffffffffffffffffffff167f17307eab39ab6107e8899845ad3d59bd9653f200f220920489ca2b5937696c3183604051610d8b91906130b0565b60405180910390a35050565b813373ffffffffffffffffffffffffffffffffffffffff1660008083815260200190815260200160002060009054906101000a900473ffffffffffffffffffffffffffffffffffffffff1673ffffffffffffffffffffffffffffffffffffffff1614610e38576040517f08c379a0000000000000000000000000000000000000000000000000000000008152600401610e2f90613188565b60405180910390fd5b60005b85859050811015610ec7576000868683818110610e81577f4e487b7100000000000000000000000000000000000000000000000000000000600052603260045260246000fd5b9050602002016020810190610e969190612644565b9050610eb3818686604051806020016040528060008152506115f2565b508080610ebf9061362b565b915050610e3b565b505050505050565b600063bc197c8160e01b905095945050505050565b60006020528060005260406000206000915054906101000a900473ffffffffffffffffffffffffffffffffffffffff1681565b600073ffffffffffffffffffffffffffffffffffffffff168273ffffffffffffffffffffffffffffffffffffffff161415610f87576040517f08c379a0000000000000000000000000000000000000000000000000000000008152600401610f7e90613288565b60405180910390fd5b60005b8151811015610ff6576000828281518110610fce577f4e487b7100000000000000000000000000000000000000000000000000000000600052603260045260246000fd5b60200260200101519050610fe28482611782565b508080610fee9061362b565b915050610f8a565b505050565b6000600260008473ffffffffffffffffffffffffffffffffffffffff1673ffffffffffffffffffffffffffffffffffffffff16815260200190815260200160002060008373ffffffffffffffffffffffffffffffffffffffff1673ffffffffffffffffffffffffffffffffffffffff16815260200190815260200160002060009054906101000a900460ff16905092915050565b600063f23a6e6160e01b905095945050505050565b843373ffffffffffffffffffffffffffffffffffffffff168173ffffffffffffffffffffffffffffffffffffffff1614806110e557506110e48133610ffb565b5b611124576040517f08c379a000000000000000000000000000000000000000000000000000000000815260040161111b906131c8565b60405180910390fd5b6111318686868686611879565b505050505050565b81600061114633836103b2565b11611186576040517f08c379a000000000000000000000000000000000000000000000000000000000815260040161117d906131e8565b60405180910390fd5b611191848484611b40565b50505050565b60007f4e2312e0000000000000000000000000000000000000000000000000000000007bffffffffffffffffffffffffffffffffffffffffffffffffffffffff1916827bffffffffffffffffffffffffffffffffffffffffffffffffffffffff1916148061120a575061120982611dd9565b5b9050919050565b80600490805190602001906112279291906122f2565b5050565b60008073ffffffffffffffffffffffffffffffffffffffff1660008084815260200190815260200160002060009054906101000a900473ffffffffffffffffffffffffffffffffffffffff1673ffffffffffffffffffffffffffffffffffffffff1614159050919050565b81518351146112da576040517f08c379a00000000000000000000000000000000000000000000000000000000081526004016112d1906132e8565b60405180910390fd5b600073ffffffffffffffffffffffffffffffffffffffff168473ffffffffffffffffffffffffffffffffffffffff16141561134a576040517f08c379a0000000000000000000000000000000000000000000000000000000008152600401611341906131a8565b60405180910390fd5b600033905061135d818787878787611e43565b60005b845181101561155d5760008582815181106113a4577f4e487b7100000000000000000000000000000000000000000000000000000000600052603260045260246000fd5b6020026020010151905060008583815181106113e9577f4e487b7100000000000000000000000000000000000000000000000000000000600052603260045260246000fd5b6020026020010151905060006001600084815260200190815260200160002060008b73ffffffffffffffffffffffffffffffffffffffff1673ffffffffffffffffffffffffffffffffffffffff1681526020019081526020016000205490508181101561148b576040517f08c379a000000000000000000000000000000000000000000000000000000000815260040161148290613248565b60405180910390fd5b8181036001600085815260200190815260200160002060008c73ffffffffffffffffffffffffffffffffffffffff1673ffffffffffffffffffffffffffffffffffffffff16815260200190815260200160002081905550816001600085815260200190815260200160002060008b73ffffffffffffffffffffffffffffffffffffffff1673ffffffffffffffffffffffffffffffffffffffff168152602001908152602001600020600082825461154291906134bc565b92505081905550505050806115569061362b565b9050611360565b508473ffffffffffffffffffffffffffffffffffffffff168673ffffffffffffffffffffffffffffffffffffffff168273ffffffffffffffffffffffffffffffffffffffff167f4a39dc06d4c0dbc64b70af90fd698a233a518aa5d07e595d983b8c0526c8f7fb87876040516115d4929190613079565b60405180910390a46115ea818787878787611e4b565b505050505050565b600073ffffffffffffffffffffffffffffffffffffffff168473ffffffffffffffffffffffffffffffffffffffff161415611662576040517f08c379a000000000000000000000000000000000000000000000000000000000815260040161165990613308565b60405180910390fd5b60003390506116868160008761167788612032565b61168088612032565b87611e43565b826001600086815260200190815260200160002060008773ffffffffffffffffffffffffffffffffffffffff1673ffffffffffffffffffffffffffffffffffffffff16815260200190815260200160002060008282546116e691906134bc565b925050819055508473ffffffffffffffffffffffffffffffffffffffff16600073ffffffffffffffffffffffffffffffffffffffff168273ffffffffffffffffffffffffffffffffffffffff167fc3d58168c5ae7397731d063d5bbf3d657854427343f4c083240f7aacaa2d0f628787604051611764929190613343565b60405180910390a461177b816000878787876120f8565b5050505050565b803373ffffffffffffffffffffffffffffffffffffffff1660008083815260200190815260200160002060009054906101000a900473ffffffffffffffffffffffffffffffffffffffff1673ffffffffffffffffffffffffffffffffffffffff1614611823576040517f08c379a000000000000000000000000000000000000000000000000000000000815260040161181a90613188565b60405180910390fd5b8260008084815260200190815260200160002060006101000a81548173ffffffffffffffffffffffffffffffffffffffff021916908373ffffffffffffffffffffffffffffffffffffffff160217905550505050565b600073ffffffffffffffffffffffffffffffffffffffff168473ffffffffffffffffffffffffffffffffffffffff1614156118e9576040517f08c379a00000000000000000000000000000000000000000000000000000000081526004016118e0906131a8565b60405180910390fd5b600033905061190c8187876118fd88612032565b61190688612032565b87611e43565b60006001600086815260200190815260200160002060008873ffffffffffffffffffffffffffffffffffffffff1673ffffffffffffffffffffffffffffffffffffffff168152602001908152602001600020549050838110156119a4576040517f08c379a000000000000000000000000000000000000000000000000000000000815260040161199b90613248565b60405180910390fd5b8381036001600087815260200190815260200160002060008973ffffffffffffffffffffffffffffffffffffffff1673ffffffffffffffffffffffffffffffffffffffff16815260200190815260200160002081905550836001600087815260200190815260200160002060008873ffffffffffffffffffffffffffffffffffffffff1673ffffffffffffffffffffffffffffffffffffffff16815260200190815260200160002054611a5791906134bc565b6001600087815260200190815260200160002060008873ffffffffffffffffffffffffffffffffffffffff1673ffffffffffffffffffffffffffffffffffffffff168152602001908152602001600020819055508573ffffffffffffffffffffffffffffffffffffffff168773ffffffffffffffffffffffffffffffffffffffff168373ffffffffffffffffffffffffffffffffffffffff167fc3d58168c5ae7397731d063d5bbf3d657854427343f4c083240f7aacaa2d0f628888604051611b21929190613343565b60405180910390a4611b378288888888886120f8565b50505050505050565b823373ffffffffffffffffffffffffffffffffffffffff168173ffffffffffffffffffffffffffffffffffffffff161480611b815750611b808133610ffb565b5b611bc0576040517f08c379a0000000000000000000000000000000000000000000000000000000008152600401611bb7906131c8565b60405180910390fd5b600073ffffffffffffffffffffffffffffffffffffffff168473ffffffffffffffffffffffffffffffffffffffff161415611c30576040517f08c379a0000000000000000000000000000000000000000000000000000000008152600401611c2790613208565b60405180910390fd5b6000339050611c6381866000611c4588612032565b611c4e88612032565b60405180602001604052806000815250611e43565b60006001600086815260200190815260200160002060008773ffffffffffffffffffffffffffffffffffffffff1673ffffffffffffffffffffffffffffffffffffffff16815260200190815260200160002054905083811015611cfb576040517f08c379a0000000000000000000000000000000000000000000000000000000008152600401611cf290613168565b60405180910390fd5b8381036001600087815260200190815260200160002060008873ffffffffffffffffffffffffffffffffffffffff1673ffffffffffffffffffffffffffffffffffffffff16815260200190815260200160002081905550600073ffffffffffffffffffffffffffffffffffffffff168673ffffffffffffffffffffffffffffffffffffffff168373ffffffffffffffffffffffffffffffffffffffff167fc3d58168c5ae7397731d063d5bbf3d657854427343f4c083240f7aacaa2d0f628888604051611dc9929190613343565b60405180910390a4505050505050565b60007f01ffc9a7000000000000000000000000000000000000000000000000000000007bffffffffffffffffffffffffffffffffffffffffffffffffffffffff1916827bffffffffffffffffffffffffffffffffffffffffffffffffffffffff1916149050919050565b505050505050565b611e6a8473ffffffffffffffffffffffffffffffffffffffff166122df565b1561202a578373ffffffffffffffffffffffffffffffffffffffff1663bc197c8187878686866040518663ffffffff1660e01b8152600401611eb0959493929190612f95565b602060405180830381600087803b158015611eca57600080fd5b505af1925050508015611efb57506040513d601f19601f82011682018060405250810190611ef89190612b0d565b60015b611fa157611f07613701565b806308c379a01415611f645750611f1c613c80565b80611f275750611f66565b806040517f08c379a0000000000000000000000000000000000000000000000000000000008152600401611f5b91906130e6565b60405180910390fd5b505b6040517f08c379a0000000000000000000000000000000000000000000000000000000008152600401611f9890613108565b60405180910390fd5b63bc197c8160e01b7bffffffffffffffffffffffffffffffffffffffffffffffffffffffff1916817bffffffffffffffffffffffffffffffffffffffffffffffffffffffff191614612028576040517f08c379a000000000000000000000000000000000000000000000000000000000815260040161201f90613128565b60405180910390fd5b505b505050505050565b60606000600167ffffffffffffffff811115612077577f4e487b7100000000000000000000000000000000000000000000000000000000600052604160045260246000fd5b6040519080825280602002602001820160405280156120a55781602001602082028036833780820191505090505b50905082816000815181106120e3577f4e487b7100000000000000000000000000000000000000000000000000000000600052603260045260246000fd5b60200260200101818152505080915050919050565b6121178473ffffffffffffffffffffffffffffffffffffffff166122df565b156122d7578373ffffffffffffffffffffffffffffffffffffffff1663f23a6e6187878686866040518663ffffffff1660e01b815260040161215d959493929190612ffd565b602060405180830381600087803b15801561217757600080fd5b505af19250505080156121a857506040513d601f19601f820116820180604052508101906121a59190612b0d565b60015b61224e576121b4613701565b806308c379a0141561221157506121c9613c80565b806121d45750612213565b806040517f08c379a000000000000000000000000000000000000000000000000000000000815260040161220891906130e6565b60405180910390fd5b505b6040517f08c379a000000000000000000000000000000000000000000000000000000000815260040161224590613108565b60405180910390fd5b63f23a6e6160e01b7bffffffffffffffffffffffffffffffffffffffffffffffffffffffff1916817bffffffffffffffffffffffffffffffffffffffffffffffffffffffff1916146122d5576040517f08c379a00000000000000000000000000000000000000000000000000000000081526004016122cc90613128565b60405180910390fd5b505b505050505050565b600080823b905060008111915050919050565b8280546122fe906135c8565b90600052602060002090601f0160209004810192826123205760008555612367565b82601f1061233957805160ff1916838001178555612367565b82800160010185558215612367579182015b8281111561236657825182559160200191906001019061234b565b5b5090506123749190612378565b5090565b5b80821115612391576000816000905550600101612379565b5090565b60006123a86123a384613391565b61336c565b905080838252602082019050828560208602820111156123c757600080fd5b60005b858110156123f757816123dd88826124e9565b8452602084019350602083019250506001810190506123ca565b5050509392505050565b600061241461240f846133bd565b61336c565b9050808382526020820190508285602086028201111561243357600080fd5b60005b858110156124635781612449888261262f565b845260208401935060208301925050600181019050612436565b5050509392505050565b600061248061247b846133e9565b61336c565b90508281526020810184848401111561249857600080fd5b6124a3848285613586565b509392505050565b60006124be6124b98461341a565b61336c565b9050828152602081018484840111156124d657600080fd5b6124e1848285613586565b509392505050565b6000813590506124f881613d16565b92915050565b60008083601f84011261251057600080fd5b8235905067ffffffffffffffff81111561252957600080fd5b60208301915083602082028301111561254157600080fd5b9250929050565b600082601f83011261255957600080fd5b8135612569848260208601612395565b91505092915050565b600082601f83011261258357600080fd5b8135612593848260208601612401565b91505092915050565b6000813590506125ab81613d2d565b92915050565b6000813590506125c081613d44565b92915050565b6000815190506125d581613d44565b92915050565b600082601f8301126125ec57600080fd5b81356125fc84826020860161246d565b91505092915050565b600082601f83011261261657600080fd5b81356126268482602086016124ab565b91505092915050565b60008135905061263e81613d5b565b92915050565b60006020828403121561265657600080fd5b6000612664848285016124e9565b91505092915050565b6000806040838503121561268057600080fd5b600061268e858286016124e9565b925050602061269f858286016124e9565b9150509250929050565b600080600080600060a086880312156126c157600080fd5b60006126cf888289016124e9565b95505060206126e0888289016124e9565b945050604086013567ffffffffffffffff8111156126fd57600080fd5b61270988828901612572565b935050606086013567ffffffffffffffff81111561272657600080fd5b61273288828901612572565b925050608086013567ffffffffffffffff81111561274f57600080fd5b61275b888289016125db565b9150509295509295909350565b600080600080600060a0868803121561278057600080fd5b600061278e888289016124e9565b955050602061279f888289016124e9565b94505060406127b08882890161262f565b93505060606127c18882890161262f565b925050608086013567ffffffffffffffff8111156127de57600080fd5b6127ea888289016125db565b9150509295509295909350565b6000806040838503121561280a57600080fd5b6000612818858286016124e9565b925050602083013567ffffffffffffffff81111561283557600080fd5b61284185828601612572565b9150509250929050565b60008060006060848603121561286057600080fd5b600061286e868287016124e9565b935050602084013567ffffffffffffffff81111561288b57600080fd5b61289786828701612572565b925050604084013567ffffffffffffffff8111156128b457600080fd5b6128c086828701612572565b9150509250925092565b600080604083850312156128dd57600080fd5b60006128eb858286016124e9565b92505060206128fc8582860161259c565b9150509250929050565b6000806040838503121561291957600080fd5b6000612927858286016124e9565b92505060206129388582860161262f565b9150509250929050565b60008060006060848603121561295757600080fd5b6000612965868287016124e9565b93505060206129768682870161262f565b92505060406129878682870161262f565b9150509250925092565b600080600080608085870312156129a757600080fd5b60006129b5878288016124e9565b94505060206129c68782880161262f565b93505060406129d78782880161262f565b925050606085013567ffffffffffffffff8111156129f457600080fd5b612a00878288016125db565b91505092959194509250565b60008060008060608587031215612a2257600080fd5b600085013567ffffffffffffffff811115612a3c57600080fd5b612a48878288016124fe565b94509450506020612a5b8782880161262f565b9250506040612a6c8782880161262f565b91505092959194509250565b60008060408385031215612a8b57600080fd5b600083013567ffffffffffffffff811115612aa557600080fd5b612ab185828601612548565b925050602083013567ffffffffffffffff811115612ace57600080fd5b612ada85828601612572565b9150509250929050565b600060208284031215612af657600080fd5b6000612b04848285016125b1565b91505092915050565b600060208284031215612b1f57600080fd5b6000612b2d848285016125c6565b91505092915050565b600060208284031215612b4857600080fd5b600082013567ffffffffffffffff811115612b6257600080fd5b612b6e84828501612605565b91505092915050565b600060208284031215612b8957600080fd5b6000612b978482850161262f565b91505092915050565b60008060408385031215612bb357600080fd5b6000612bc18582860161262f565b925050602083013567ffffffffffffffff811115612bde57600080fd5b612bea85828601612605565b9150509250929050565b6000612c008383612f5c565b60208301905092915050565b612c1581613512565b82525050565b6000612c268261345b565b612c308185613489565b9350612c3b8361344b565b8060005b83811015612c6c578151612c538882612bf4565b9750612c5e8361347c565b925050600181019050612c3f565b5085935050505092915050565b612c8281613524565b82525050565b612c9181613530565b82525050565b6000612ca282613466565b612cac818561349a565b9350612cbc818560208601613595565b612cc581613723565b840191505092915050565b6000612cdb82613471565b612ce581856134ab565b9350612cf5818560208601613595565b612cfe81613723565b840191505092915050565b6000612d166034836134ab565b9150612d2182613741565b604082019050919050565b6000612d396028836134ab565b9150612d4482613790565b604082019050919050565b6000612d5c602b836134ab565b9150612d67826137df565b604082019050919050565b6000612d7f6024836134ab565b9150612d8a8261382e565b604082019050919050565b6000612da26029836134ab565b9150612dad8261387d565b604082019050919050565b6000612dc56025836134ab565b9150612dd0826138cc565b604082019050919050565b6000612de86032836134ab565b9150612df38261391b565b604082019050919050565b6000612e0b6026836134ab565b9150612e168261396a565b604082019050919050565b6000612e2e6023836134ab565b9150612e39826139b9565b604082019050919050565b6000612e516026836134ab565b9150612e5c82613a08565b604082019050919050565b6000612e74602a836134ab565b9150612e7f82613a57565b604082019050919050565b6000612e976023836134ab565b9150612ea282613aa6565b604082019050919050565b6000612eba602c836134ab565b9150612ec582613af5565b604082019050919050565b6000612edd6029836134ab565b9150612ee882613b44565b604082019050919050565b6000612f006029836134ab565b9150612f0b82613b93565b604082019050919050565b6000612f236028836134ab565b9150612f2e82613be2565b604082019050919050565b6000612f466021836134ab565b9150612f5182613c31565b604082019050919050565b612f658161357c565b82525050565b612f748161357c565b82525050565b6000602082019050612f8f6000830184612c0c565b92915050565b600060a082019050612faa6000830188612c0c565b612fb76020830187612c0c565b8181036040830152612fc98186612c1b565b90508181036060830152612fdd8185612c1b565b90508181036080830152612ff18184612c97565b90509695505050505050565b600060a0820190506130126000830188612c0c565b61301f6020830187612c0c565b61302c6040830186612f6b565b6130396060830185612f6b565b818103608083015261304b8184612c97565b90509695505050505050565b600060208201905081810360008301526130718184612c1b565b905092915050565b600060408201905081810360008301526130938185612c1b565b905081810360208301526130a78184612c1b565b90509392505050565b60006020820190506130c56000830184612c79565b92915050565b60006020820190506130e06000830184612c88565b92915050565b600060208201905081810360008301526131008184612cd0565b905092915050565b6000602082019050818103600083015261312181612d09565b9050919050565b6000602082019050818103600083015261314181612d2c565b9050919050565b6000602082019050818103600083015261316181612d4f565b9050919050565b6000602082019050818103600083015261318181612d72565b9050919050565b600060208201905081810360008301526131a181612d95565b9050919050565b600060208201905081810360008301526131c181612db8565b9050919050565b600060208201905081810360008301526131e181612ddb565b9050919050565b6000602082019050818103600083015261320181612dfe565b9050919050565b6000602082019050818103600083015261322181612e21565b9050919050565b6000602082019050818103600083015261324181612e44565b9050919050565b6000602082019050818103600083015261326181612e67565b9050919050565b6000602082019050818103600083015261328181612e8a565b9050919050565b600060208201905081810360008301526132a181612ead565b9050919050565b600060208201905081810360008301526132c181612ed0565b9050919050565b600060208201905081810360008301526132e181612ef3565b9050919050565b6000602082019050818103600083015261330181612f16565b9050919050565b6000602082019050818103600083015261332181612f39565b9050919050565b600060208201905061333d6000830184612f6b565b92915050565b60006040820190506133586000830185612f6b565b6133656020830184612f6b565b9392505050565b6000613376613387565b905061338282826135fa565b919050565b6000604051905090565b600067ffffffffffffffff8211156133ac576133ab6136d2565b5b602082029050602081019050919050565b600067ffffffffffffffff8211156133d8576133d76136d2565b5b602082029050602081019050919050565b600067ffffffffffffffff821115613404576134036136d2565b5b61340d82613723565b9050602081019050919050565b600067ffffffffffffffff821115613435576134346136d2565b5b61343e82613723565b9050602081019050919050565b6000819050602082019050919050565b600081519050919050565b600081519050919050565b600081519050919050565b6000602082019050919050565b600082825260208201905092915050565b600082825260208201905092915050565b600082825260208201905092915050565b60006134c78261357c565b91506134d28361357c565b9250827fffffffffffffffffffffffffffffffffffffffffffffffffffffffffffffffff0382111561350757613506613674565b5b828201905092915050565b600061351d8261355c565b9050919050565b60008115159050919050565b60007fffffffff0000000000000000000000000000000000000000000000000000000082169050919050565b600073ffffffffffffffffffffffffffffffffffffffff82169050919050565b6000819050919050565b82818337600083830152505050565b60005b838110156135b3578082015181840152602081019050613598565b838111156135c2576000848401525b50505050565b600060028204905060018216806135e057607f821691505b602082108114156135f4576135f36136a3565b5b50919050565b61360382613723565b810181811067ffffffffffffffff82111715613622576136216136d2565b5b80604052505050565b60006136368261357c565b91507fffffffffffffffffffffffffffffffffffffffffffffffffffffffffffffffff82141561366957613668613674565b5b600182019050919050565b7f4e487b7100000000000000000000000000000000000000000000000000000000600052601160045260246000fd5b7f4e487b7100000000000000000000000000000000000000000000000000000000600052602260045260246000fd5b7f4e487b7100000000000000000000000000000000000000000000000000000000600052604160045260246000fd5b600060033d11156137205760046000803e61371d600051613734565b90505b90565b6000601f19601f8301169050919050565b60008160e01c9050919050565b7f455243313135353a207472616e7366657220746f206e6f6e204552433131353560008201527f526563656976657220696d706c656d656e746572000000000000000000000000602082015250565b7f455243313135353a204552433131353552656365697665722072656a6563746560008201527f6420746f6b656e73000000000000000000000000000000000000000000000000602082015250565b7f455243313135353a2062616c616e636520717565727920666f7220746865207a60008201527f65726f2061646472657373000000000000000000000000000000000000000000602082015250565b7f455243313135353a206275726e20616d6f756e7420657863656564732062616c60008201527f616e636500000000000000000000000000000000000000000000000000000000602082015250565b7f455243313135352363726561746f724f6e6c793a204f4e4c595f43524541544f60008201527f525f414c4c4f5745440000000000000000000000000000000000000000000000602082015250565b7f455243313135353a207472616e7366657220746f20746865207a65726f20616460008201527f6472657373000000000000000000000000000000000000000000000000000000602082015250565b7f455243313135353a207472616e736665722063616c6c6572206973206e6f742060008201527f6f776e6572206e6f7220617070726f7665640000000000000000000000000000602082015250565b7f45524331313535236f776e65724f6e6c793a204f4e4c595f4f574e4552535f4160008201527f4c4c4f5745440000000000000000000000000000000000000000000000000000602082015250565b7f455243313135353a206275726e2066726f6d20746865207a65726f206164647260008201527f6573730000000000000000000000000000000000000000000000000000000000602082015250565b7f455243313135355472616461626c65237572693a204e4f4e4558495354454e5460008201527f5f544f4b454e0000000000000000000000000000000000000000000000000000602082015250565b7f455243313135353a20696e73756666696369656e742062616c616e636520666f60008201527f72207472616e7366657200000000000000000000000000000000000000000000602082015250565b7f4552433131353523726f6f744f6e6c793a204f4e4c595f524f4f545f414c4c4f60008201527f5745440000000000000000000000000000000000000000000000000000000000602082015250565b7f455243313135355472616461626c652373657443726561746f723a20494e564160008201527f4c49445f414444524553532e0000000000000000000000000000000000000000602082015250565b7f455243313135353a2073657474696e6720617070726f76616c2073746174757360008201527f20666f722073656c660000000000000000000000000000000000000000000000602082015250565b7f455243313135353a206163636f756e747320616e6420696473206c656e67746860008201527f206d69736d617463680000000000000000000000000000000000000000000000602082015250565b7f455243313135353a2069647320616e6420616d6f756e7473206c656e6774682060008201527f6d69736d61746368000000000000000000000000000000000000000000000000602082015250565b7f455243313135353a206d696e7420746f20746865207a65726f2061646472657360008201527f7300000000000000000000000000000000000000000000000000000000000000602082015250565b600060443d1015613c9057613d13565b613c98613387565b60043d036004823e80513d602482011167ffffffffffffffff82111715613cc0575050613d13565b808201805167ffffffffffffffff811115613cde5750505050613d13565b80602083010160043d038501811115613cfb575050505050613d13565b613d0a826020018501866135fa565b82955050505050505b90565b613d1f81613512565b8114613d2a57600080fd5b50565b613d3681613524565b8114613d4157600080fd5b50565b613d4d81613530565b8114613d5857600080fd5b50565b613d648161357c565b8114613d6f57600080fd5b5056fea2646970667358221220551153ea0d5bca6be5c744ac2c5f746a7d51b17d8a6c4e1081458a0ae2d19a6464736f6c63430008040033",
  "immutableReferences": {},
  "source": "// SPDX-License-Identifier: MIT\n\npragma solidity ^0.8.0;\n\nimport \"./IERC1155.sol\";\nimport \"./ERC1155Receiver.sol\";\nimport \"./extensions/IERC1155MetadataURI.sol\";\nimport \"./Address.sol\";\nimport \"./ERC165.sol\";\n\n/**\n * @dev Implementation of the basic standard multi-token.\n * See https://eips.ethereum.org/EIPS/eip-1155\n * Originally based on code by Enjin: https://github.com/enjin/erc-1155\n *\n * _Available since v3.1._\n */\ncontract ERC1155 is ERC165, IERC1155, IERC1155MetadataURI, ERC1155Receiver {\n    using Address for address;\n\n    // creator mapping\n    mapping(uint256 => address) public creators;\n\n    // Mapping from token ID to account balances\n    mapping(uint256 => mapping(address => uint256)) private _balances;\n\n    // Mapping from account to operator approvals\n    mapping(address => mapping(address => bool)) private _operatorApprovals;\n\n    // custom type id => uri mapping\n    mapping(uint256 => string) customUri;\n\n    // Used as the URI for all token types by relying on ID substitution, e.g. https://token-cdn-domain/{id}.json\n    string private _uri;\n\n    address private _root;\n\n    /**\n     * @dev Require msg.sender to be the creator of the token id\n     */\n    modifier creatorOnly(uint256 _id) {\n        require(\n            creators[_id] == msg.sender,\n            \"ERC1155#creatorOnly: ONLY_CREATOR_ALLOWED\"\n        );\n        _;\n    }\n\n    /**\n     * @dev Require msg.sender to own more than 0 of the token id\n     */\n    modifier ownerOnly(uint256 _id) {\n        require(\n            balanceOf(msg.sender, _id) > 0,\n            \"ERC1155#ownerOnly: ONLY_OWNERS_ALLOWED\"\n        );\n        _;\n    }\n\n    /**\n     * @dev Require msg.sender to own more than 0 of the token id\n     */\n    modifier rootOnly() {\n        require(msg.sender == _root, \"ERC1155#rootOnly: ONLY_ROOT_ALLOWED\");\n        _;\n    }\n\n    modifier approveOnly(address from) {\n        require(\n            from == msg.sender || isApprovedForAll(from, msg.sender),\n            \"ERC1155: transfer caller is not owner nor approved\"\n        );\n        _;\n    }\n\n    /**\n     * @dev See {_setURI}.\n     */\n    constructor(string memory uri_) {\n        _setURI(uri_);\n        _root = msg.sender;\n    }\n\n    /**\n     * @dev See {IERC165-supportsInterface}.\n     */\n    function supportsInterface(bytes4 interfaceId)\n        public\n        view\n        virtual\n        override(ERC165, IERC165, ERC1155Receiver)\n        returns (bool)\n    {\n        return\n            interfaceId == type(IERC1155).interfaceId ||\n            interfaceId == type(IERC1155MetadataURI).interfaceId ||\n            super.supportsInterface(interfaceId);\n    }\n\n    /**\n     * @dev Sets a new URI for all token types, by relying on the token type ID\n     * substitution mechanism\n     * https://eips.ethereum.org/EIPS/eip-1155#metadata[defined in the EIP].\n     * @param _newURI New URI for all tokens\n     */\n    function setURI(string memory _newURI) public rootOnly {\n        _setURI(_newURI);\n    }\n\n    function _exists(uint256 _id) private view returns (bool) {\n        return creators[_id] != address(0x0);\n    }\n\n    /**\n     * @dev See {IERC1155MetadataURI-uri}.\n     *\n     * This implementation returns the same URI for *all* token types. It relies\n     * on the token type ID substitution mechanism\n     * https://eips.ethereum.org/EIPS/eip-1155#metadata[defined in the EIP].\n     *\n     * Clients calling this function must replace the `\\{id\\}` substring with the\n     * actual token type ID.\n     */\n    function uri(uint256 _id)\n        public\n        view\n        virtual\n        override\n        returns (string memory)\n    {\n        // return _uri;\n        require(_exists(_id), \"ERC1155Tradable#uri: NONEXISTENT_TOKEN\");\n        // We have to convert string to bytes to check for existence\n        bytes memory customUriBytes = bytes(customUri[_id]);\n        if (customUriBytes.length > 0) {\n            return customUri[_id];\n        } else {\n            return _uri;\n        }\n    }\n\n    /**\n     * @dev See {IERC1155-balanceOf}.\n     *\n     * Requirements:\n     *\n     * - `account` cannot be the zero address.\n     */\n    function balanceOf(address account, uint256 id)\n        public\n        view\n        virtual\n        override\n        returns (uint256)\n    {\n        require(\n            account != address(0),\n            \"ERC1155: balance query for the zero address\"\n        );\n        return _balances[id][account];\n    }\n\n    /**\n     * @dev See {IERC1155-balanceOfBatch}.\n     *\n     * Requirements:\n     *\n     * - `accounts` and `ids` must have the same length.\n     */\n    function balanceOfBatch(address[] memory accounts, uint256[] memory ids)\n        public\n        view\n        virtual\n        override\n        returns (uint256[] memory)\n    {\n        require(\n            accounts.length == ids.length,\n            \"ERC1155: accounts and ids length mismatch\"\n        );\n\n        uint256[] memory batchBalances = new uint256[](accounts.length);\n\n        for (uint256 i = 0; i < accounts.length; ++i) {\n            batchBalances[i] = balanceOf(accounts[i], ids[i]);\n        }\n\n        return batchBalances;\n    }\n\n    /**\n     * @dev See {IERC1155-setApprovalForAll}.\n     */\n    function setApprovalForAll(address operator, bool approved)\n        public\n        virtual\n        override\n    {\n        require(\n            msg.sender != operator,\n            \"ERC1155: setting approval status for self\"\n        );\n\n        _operatorApprovals[msg.sender][operator] = approved;\n        emit ApprovalForAll(msg.sender, operator, approved);\n    }\n\n    /**\n     * @dev See {IERC1155-isApprovedForAll}.\n     */\n    function isApprovedForAll(address account, address operator)\n        public\n        view\n        virtual\n        override\n        returns (bool)\n    {\n        return _operatorApprovals[account][operator];\n    }\n\n    /**\n     * @dev See {IERC1155-safeTransferFrom}.\n     */\n    function safeTransferFrom(\n        address from,\n        address to,\n        uint256 id,\n        uint256 amount,\n        bytes memory data\n    ) public virtual override approveOnly(from) {\n        _safeTransferFrom(from, to, id, amount, data);\n    }\n\n    /**\n     * @dev See {IERC1155-safeBatchTransferFrom}.\n     */\n    function safeBatchTransferFrom(\n        address from,\n        address to,\n        uint256[] memory ids,\n        uint256[] memory amounts,\n        bytes memory data\n    ) public virtual override approveOnly(from) {\n        _safeBatchTransferFrom(from, to, ids, amounts, data);\n    }\n\n    /**\n     * @dev Transfers `amount` tokens of token type `id` from `from` to `to`.\n     *\n     * Emits a {TransferSingle} event.\n     *\n     * Requirements:\n     *\n     * - `to` cannot be the zero address.\n     * - `from` must have a balance of tokens of type `id` of at least `amount`.\n     * - If `to` refers to a smart contract, it must implement {IERC1155Receiver-onERC1155Received} and return the\n     * acceptance magic value.\n     */\n    function _safeTransferFrom(\n        address from,\n        address to,\n        uint256 id,\n        uint256 amount,\n        bytes memory data\n    ) internal virtual {\n        require(to != address(0), \"ERC1155: transfer to the zero address\");\n\n        address operator = msg.sender;\n\n        _beforeTokenTransfer(\n            operator,\n            from,\n            to,\n            _asSingletonArray(id),\n            _asSingletonArray(amount),\n            data\n        );\n\n        uint256 fromBalance = _balances[id][from];\n        require(\n            fromBalance >= amount,\n            \"ERC1155: insufficient balance for transfer\"\n        );\n        unchecked {\n            _balances[id][from] = fromBalance - amount;\n        }\n        _balances[id][to] = _balances[id][to] + amount;\n\n        emit TransferSingle(operator, from, to, id, amount);\n\n        _doSafeTransferAcceptanceCheck(operator, from, to, id, amount, data);\n    }\n\n    /**\n     * @dev xref:ROOT:erc1155.adoc#batch-operations[Batched] version of {_safeTransferFrom}.\n     *\n     * Emits a {TransferBatch} event.\n     *\n     * Requirements:\n     *\n     * - If `to` refers to a smart contract, it must implement {IERC1155Receiver-onERC1155BatchReceived} and return the\n     * acceptance magic value.\n     */\n    function _safeBatchTransferFrom(\n        address from,\n        address to,\n        uint256[] memory ids,\n        uint256[] memory amounts,\n        bytes memory data\n    ) internal virtual {\n        require(\n            ids.length == amounts.length,\n            \"ERC1155: ids and amounts length mismatch\"\n        );\n        require(to != address(0), \"ERC1155: transfer to the zero address\");\n\n        address operator = msg.sender;\n\n        _beforeTokenTransfer(operator, from, to, ids, amounts, data);\n\n        for (uint256 i = 0; i < ids.length; ++i) {\n            uint256 id = ids[i];\n            uint256 amount = amounts[i];\n\n            uint256 fromBalance = _balances[id][from];\n            require(\n                fromBalance >= amount,\n                \"ERC1155: insufficient balance for transfer\"\n            );\n            unchecked {\n                _balances[id][from] = fromBalance - amount;\n            }\n            _balances[id][to] += amount;\n        }\n\n        emit TransferBatch(operator, from, to, ids, amounts);\n\n        _doSafeBatchTransferAcceptanceCheck(\n            operator,\n            from,\n            to,\n            ids,\n            amounts,\n            data\n        );\n    }\n\n    /**\n     * @dev Sets a new URI for all token types, by relying on the token type ID\n     * substitution mechanism\n     * https://eips.ethereum.org/EIPS/eip-1155#metadata[defined in the EIP].\n     *\n     * By this mechanism, any occurrence of the `\\{id\\}` substring in either the\n     * URI or any of the amounts in the JSON file at said URI will be replaced by\n     * clients with the token type ID.\n     *\n     * For example, the `https://token-cdn-domain/\\{id\\}.json` URI would be\n     * interpreted by clients as\n     * `https://token-cdn-domain/000000000000000000000000000000000000000000000000000000000004cce0.json`\n     * for token type ID 0x4cce0.\n     *\n     * See {uri}.\n     *\n     * Because these URIs cannot be meaningfully represented by the {URI} event,\n     * this function emits no events.\n     */\n    function _setURI(string memory newuri) internal virtual {\n        _uri = newuri;\n    }\n\n    /**\n     * @dev Will update the base URI for the token\n     * @param _tokenId The token to update. _msgSender() must be its creator.\n     * @param _newURI New URI for the token.\n     */\n    function setCustomURI(uint256 _tokenId, string memory _newURI)\n        public\n        creatorOnly(_tokenId)\n    {\n        customUri[_tokenId] = _newURI;\n        emit URI(_newURI, _tokenId);\n    }\n\n    /**\n     * @dev Change the creator address for given tokens\n     * @param _to   Address of the new creator\n     * @param _ids  Array of Token IDs to change creator\n     */\n    function setCreator(address _to, uint256[] memory _ids) public {\n        require(\n            _to != address(0),\n            \"ERC1155Tradable#setCreator: INVALID_ADDRESS.\"\n        );\n        for (uint256 i = 0; i < _ids.length; i++) {\n            uint256 id = _ids[i];\n            _setCreator(_to, id);\n        }\n    }\n\n    /**\n     * @dev Change the creator address for given token\n     * @param _to   Address of the new creator\n     * @param _id  Token IDs to change creator of\n     */\n    function _setCreator(address _to, uint256 _id) internal creatorOnly(_id) {\n        creators[_id] = _to;\n    }\n\n    /**\n     * @dev Airdrop `amount` token type `id` to the addresses in `targets`.\n     */\n    function airdrop(\n        address[] calldata targets,\n        uint256 id,\n        uint256 amount\n    ) public virtual creatorOnly(id) {\n        for (uint256 i = 0; i < targets.length; i++) {\n            address to = targets[i];\n            _mint(to, id, amount, \"\");\n        }\n    }\n\n    function mint(\n        address to,\n        uint256 id,\n        uint256 amount,\n        bytes memory data\n    ) public virtual creatorOnly(id) {\n        _mint(to, id, amount, data);\n    }\n\n    /**\n     * @dev Creates `amount` tokens of token type `id`, and assigns them to `account`.\n     *\n     * Emits a {TransferSingle} event.\n     *\n     * Requirements:\n     *\n     * - `account` cannot be the zero address.\n     * - If `account` refers to a smart contract, it must implement {IERC1155Receiver-onERC1155Received} and return the\n     * acceptance magic value.\n     */\n    function _mint(\n        address to,\n        uint256 id,\n        uint256 amount,\n        bytes memory data\n    ) internal virtual {\n        require(to != address(0), \"ERC1155: mint to the zero address\");\n\n        address operator = msg.sender;\n\n        _beforeTokenTransfer(\n            operator,\n            address(0),\n            to,\n            _asSingletonArray(id),\n            _asSingletonArray(amount),\n            data\n        );\n\n        _balances[id][to] += amount;\n        emit TransferSingle(operator, address(0), to, id, amount);\n\n        _doSafeTransferAcceptanceCheck(\n            operator,\n            address(0),\n            to,\n            id,\n            amount,\n            data\n        );\n    }\n\n    /**\n     * @dev xref:ROOT:erc1155.adoc#batch-operations[Batched] version of {_mint}.\n     *\n     * Requirements:\n     *\n     * - `ids` and `amounts` must have the same length.\n     * - If `to` refers to a smart contract, it must implement {IERC1155Receiver-onERC1155BatchReceived} and return the\n     * acceptance magic value.\n     */\n    function _mintBatch(\n        address to,\n        uint256[] memory ids,\n        uint256[] memory amounts,\n        bytes memory data\n    ) internal virtual {\n        require(to != address(0), \"ERC1155: mint to the zero address\");\n        require(\n            ids.length == amounts.length,\n            \"ERC1155: ids and amounts length mismatch\"\n        );\n\n        address operator = msg.sender;\n\n        _beforeTokenTransfer(operator, address(0), to, ids, amounts, data);\n\n        for (uint256 i = 0; i < ids.length; i++) {\n            _balances[ids[i]][to] += amounts[i];\n        }\n\n        emit TransferBatch(operator, address(0), to, ids, amounts);\n\n        _doSafeBatchTransferAcceptanceCheck(\n            operator,\n            address(0),\n            to,\n            ids,\n            amounts,\n            data\n        );\n    }\n\n    function burn(\n        address account,\n        uint256 id,\n        uint256 amount\n    ) public virtual ownerOnly(id) {\n        _burn(account, id, amount);\n    }\n\n    /**\n     * @dev Destroys `amount` tokens of token type `id` from `account`\n     *\n     * Requirements:\n     *\n     * - `account` cannot be the zero address.\n     * - `account` must have at least `amount` tokens of token type `id`.\n     */\n    function _burn(\n        address account,\n        uint256 id,\n        uint256 amount\n    ) internal virtual approveOnly(account) {\n        require(account != address(0), \"ERC1155: burn from the zero address\");\n\n        address operator = msg.sender;\n\n        _beforeTokenTransfer(\n            operator,\n            account,\n            address(0),\n            _asSingletonArray(id),\n            _asSingletonArray(amount),\n            \"\"\n        );\n\n        uint256 accountBalance = _balances[id][account];\n        require(\n            accountBalance >= amount,\n            \"ERC1155: burn amount exceeds balance\"\n        );\n        unchecked {\n            _balances[id][account] = accountBalance - amount;\n        }\n\n        emit TransferSingle(operator, account, address(0), id, amount);\n    }\n\n    function burnBatch(\n        address account,\n        uint256[] memory ids,\n        uint256[] memory amounts\n    ) public virtual {}\n\n    /**\n     * @dev xref:ROOT:erc1155.adoc#batch-operations[Batched] version of {_burn}.\n     *\n     * Requirements:\n     *\n     * - `ids` and `amounts` must have the same length.\n     */\n    function _burnBatch(\n        address account,\n        uint256[] memory ids,\n        uint256[] memory amounts\n    ) internal virtual approveOnly(account) {\n        require(account != address(0), \"ERC1155: burn from the zero address\");\n        require(\n            ids.length == amounts.length,\n            \"ERC1155: ids and amounts length mismatch\"\n        );\n\n        address operator = msg.sender;\n\n        _beforeTokenTransfer(operator, account, address(0), ids, amounts, \"\");\n\n        for (uint256 i = 0; i < ids.length; i++) {\n            uint256 id = ids[i];\n            uint256 amount = amounts[i];\n\n            uint256 accountBalance = _balances[id][account];\n            require(\n                accountBalance >= amount,\n                \"ERC1155: burn amount exceeds balance\"\n            );\n            unchecked {\n                _balances[id][account] = accountBalance - amount;\n            }\n        }\n\n        emit TransferBatch(operator, account, address(0), ids, amounts);\n    }\n\n    /**\n     * @dev Hook that is called before any token transfer. This includes minting\n     * and burning, as well as batched variants.\n     *\n     * The same hook is called on both single and batched variants. For single\n     * transfers, the length of the `id` and `amount` arrays will be 1.\n     *\n     * Calling conditions (for each `id` and `amount` pair):\n     *\n     * - When `from` and `to` are both non-zero, `amount` of ``from``'s tokens\n     * of token type `id` will be  transferred to `to`.\n     * - When `from` is zero, `amount` tokens of token type `id` will be minted\n     * for `to`.\n     * - when `to` is zero, `amount` of ``from``'s tokens of token type `id`\n     * will be burned.\n     * - `from` and `to` are never both zero.\n     * - `ids` and `amounts` have the same, non-zero length.\n     *\n     * To learn more about hooks, head to xref:ROOT:extending-contracts.adoc#using-hooks[Using Hooks].\n     */\n    function _beforeTokenTransfer(\n        address operator,\n        address from,\n        address to,\n        uint256[] memory ids,\n        uint256[] memory amounts,\n        bytes memory data\n    ) internal virtual {}\n\n    function _doSafeTransferAcceptanceCheck(\n        address operator,\n        address from,\n        address to,\n        uint256 id,\n        uint256 amount,\n        bytes memory data\n    ) private {\n        if (to.isContract()) {\n            try\n                IERC1155Receiver(to).onERC1155Received(\n                    operator,\n                    from,\n                    id,\n                    amount,\n                    data\n                )\n            returns (bytes4 response) {\n                if (\n                    response != IERC1155Receiver(to).onERC1155Received.selector\n                ) {\n                    revert(\"ERC1155: ERC1155Receiver rejected tokens\");\n                }\n            } catch Error(string memory reason) {\n                revert(reason);\n            } catch {\n                revert(\"ERC1155: transfer to non ERC1155Receiver implementer\");\n            }\n        }\n    }\n\n    function _doSafeBatchTransferAcceptanceCheck(\n        address operator,\n        address from,\n        address to,\n        uint256[] memory ids,\n        uint256[] memory amounts,\n        bytes memory data\n    ) private {\n        if (to.isContract()) {\n            try\n                IERC1155Receiver(to).onERC1155BatchReceived(\n                    operator,\n                    from,\n                    ids,\n                    amounts,\n                    data\n                )\n            returns (bytes4 response) {\n                if (\n                    response !=\n                    IERC1155Receiver(to).onERC1155BatchReceived.selector\n                ) {\n                    revert(\"ERC1155: ERC1155Receiver rejected tokens\");\n                }\n            } catch Error(string memory reason) {\n                revert(reason);\n            } catch {\n                revert(\"ERC1155: transfer to non ERC1155Receiver implementer\");\n            }\n        }\n    }\n\n    function _asSingletonArray(uint256 element)\n        private\n        pure\n        returns (uint256[] memory)\n    {\n        uint256[] memory array = new uint256[](1);\n        array[0] = element;\n\n        return array;\n    }\n}\n",
  "sourcePath": "/Users/lowesyang/Documents/Byterum/Products/NFT-GO/moonlight/erc1155-contract/contracts/ERC1155.sol",
  "compiler": {
    "name": "solc",
    "version": "0.8.4+commit.c7e474f2.Emscripten.clang"
  },
  "schemaVersion": "3.4.1",
  "updatedAt": "2021-07-09T07:09:22.008Z",
  "devdoc": {
    "details": "Implementation of the basic standard multi-token. See https://eips.ethereum.org/EIPS/eip-1155 Originally based on code by Enjin: https://github.com/enjin/erc-1155 _Available since v3.1._",
    "kind": "dev",
    "methods": {
      "airdrop(address[],uint256,uint256)": {
        "details": "Airdrop `amount` token type `id` to the addresses in `targets`."
      },
      "balanceOf(address,uint256)": {
        "details": "See {IERC1155-balanceOf}. Requirements: - `account` cannot be the zero address."
      },
      "balanceOfBatch(address[],uint256[])": {
        "details": "See {IERC1155-balanceOfBatch}. Requirements: - `accounts` and `ids` must have the same length."
      },
      "constructor": {
        "details": "See {_setURI}."
      },
      "isApprovedForAll(address,address)": {
        "details": "See {IERC1155-isApprovedForAll}."
      },
      "safeBatchTransferFrom(address,address,uint256[],uint256[],bytes)": {
        "details": "See {IERC1155-safeBatchTransferFrom}."
      },
      "safeTransferFrom(address,address,uint256,uint256,bytes)": {
        "details": "See {IERC1155-safeTransferFrom}."
      },
      "setApprovalForAll(address,bool)": {
        "details": "See {IERC1155-setApprovalForAll}."
      },
      "setCreator(address,uint256[])": {
        "details": "Change the creator address for given tokens",
        "params": {
          "_ids": "Array of Token IDs to change creator",
          "_to": "Address of the new creator"
        }
      },
      "setCustomURI(uint256,string)": {
        "details": "Will update the base URI for the token",
        "params": {
          "_newURI": "New URI for the token.",
          "_tokenId": "The token to update. _msgSender() must be its creator."
        }
      },
      "setURI(string)": {
        "details": "Sets a new URI for all token types, by relying on the token type ID substitution mechanism https://eips.ethereum.org/EIPS/eip-1155#metadata[defined in the EIP].",
        "params": {
          "_newURI": "New URI for all tokens"
        }
      },
      "supportsInterface(bytes4)": {
        "details": "See {IERC165-supportsInterface}."
      },
      "uri(uint256)": {
        "details": "See {IERC1155MetadataURI-uri}. This implementation returns the same URI for *all* token types. It relies on the token type ID substitution mechanism https://eips.ethereum.org/EIPS/eip-1155#metadata[defined in the EIP]. Clients calling this function must replace the `\\{id\\}` substring with the actual token type ID."
      }
    },
    "version": 1
  },
  "userdoc": {
    "kind": "user",
    "methods": {},
    "version": 1
  }
}