{
  "contractName": "NFT721Basic",
  "abi": [
    {
      "inputs": [
        {
          "internalType": "string",
          "name": "name",
          "type": "string"
        },
        {
          "internalType": "string",
          "name": "symbol",
          "type": "string"
        }
      ],
      "stateMutability": "nonpayable",
      "type": "constructor"
    },
    {
      "anonymous": false,
      "inputs": [
        {
          "indexed": true,
          "internalType": "address",
          "name": "_owner",
          "type": "address"
        },
        {
          "indexed": true,
          "internalType": "address",
          "name": "_approved",
          "type": "address"
        },
        {
          "indexed": false,
          "internalType": "uint256",
          "name": "_tokenId",
          "type": "uint256"
        }
      ],
      "name": "Approval",
      "type": "event"
    },
    {
      "anonymous": false,
      "inputs": [
        {
          "indexed": true,
          "internalType": "address",
          "name": "_owner",
          "type": "address"
        },
        {
          "indexed": true,
          "internalType": "address",
          "name": "_operator",
          "type": "address"
        },
        {
          "indexed": false,
          "internalType": "bool",
          "name": "_approved",
          "type": "bool"
        }
      ],
      "name": "ApprovalForAll",
      "type": "event"
    },
    {
      "anonymous": false,
      "inputs": [
        {
          "indexed": true,
          "internalType": "address",
          "name": "_from",
          "type": "address"
        },
        {
          "indexed": true,
          "internalType": "address",
          "name": "_to",
          "type": "address"
        },
        {
          "indexed": false,
          "internalType": "uint256",
          "name": "_tokenId",
          "type": "uint256"
        }
      ],
      "name": "Transfer",
      "type": "event"
    },
    {
      "inputs": [
        {
          "internalType": "bytes4",
          "name": "_interfaceID",
          "type": "bytes4"
        }
      ],
      "name": "supportsInterface",
      "outputs": [
        {
          "internalType": "bool",
          "name": "",
          "type": "bool"
        }
      ],
      "stateMutability": "view",
      "type": "function"
    },
    {
      "inputs": [
        {
          "internalType": "uint256",
          "name": "",
          "type": "uint256"
        }
      ],
      "name": "tokens",
      "outputs": [
        {
          "internalType": "uint256",
          "name": "",
          "type": "uint256"
        }
      ],
      "stateMutability": "view",
      "type": "function"
    },
    {
      "inputs": [
        {
          "internalType": "address",
          "name": "_from",
          "type": "address"
        },
        {
          "internalType": "address",
          "name": "_to",
          "type": "address"
        },
        {
          "internalType": "uint256",
          "name": "_tokenId",
          "type": "uint256"
        }
      ],
      "name": "safeTransferFrom",
      "outputs": [],
      "stateMutability": "nonpayable",
      "type": "function"
    },
    {
      "inputs": [
        {
          "internalType": "address",
          "name": "_from",
          "type": "address"
        },
        {
          "internalType": "address",
          "name": "_to",
          "type": "address"
        },
        {
          "internalType": "uint256",
          "name": "_tokenId",
          "type": "uint256"
        },
        {
          "internalType": "bytes",
          "name": "_data",
          "type": "bytes"
        }
      ],
      "name": "safeTransferFrom",
      "outputs": [],
      "stateMutability": "nonpayable",
      "type": "function"
    },
    {
      "inputs": [
        {
          "internalType": "address",
          "name": "_from",
          "type": "address"
        },
        {
          "internalType": "address",
          "name": "_to",
          "type": "address"
        },
        {
          "internalType": "uint256",
          "name": "_tokenId",
          "type": "uint256"
        }
      ],
      "name": "transferFrom",
      "outputs": [],
      "stateMutability": "nonpayable",
      "type": "function"
    },
    {
      "inputs": [
        {
          "internalType": "address",
          "name": "_approved",
          "type": "address"
        },
        {
          "internalType": "uint256",
          "name": "_tokenId",
          "type": "uint256"
        }
      ],
      "name": "approve",
      "outputs": [],
      "stateMutability": "nonpayable",
      "type": "function"
    },
    {
      "inputs": [
        {
          "internalType": "address",
          "name": "_operator",
          "type": "address"
        },
        {
          "internalType": "bool",
          "name": "_approved",
          "type": "bool"
        }
      ],
      "name": "setApprovalForAll",
      "outputs": [],
      "stateMutability": "nonpayable",
      "type": "function"
    },
    {
      "inputs": [
        {
          "internalType": "address",
          "name": "_owner",
          "type": "address"
        }
      ],
      "name": "balanceOf",
      "outputs": [
        {
          "internalType": "uint256",
          "name": "",
          "type": "uint256"
        }
      ],
      "stateMutability": "view",
      "type": "function"
    },
    {
      "inputs": [
        {
          "internalType": "uint256",
          "name": "_tokenId",
          "type": "uint256"
        }
      ],
      "name": "ownerOf",
      "outputs": [
        {
          "internalType": "address",
          "name": "_owner",
          "type": "address"
        }
      ],
      "stateMutability": "view",
      "type": "function"
    },
    {
      "inputs": [
        {
          "internalType": "uint256",
          "name": "_tokenId",
          "type": "uint256"
        }
      ],
      "name": "getApproved",
      "outputs": [
        {
          "internalType": "address",
          "name": "",
          "type": "address"
        }
      ],
      "stateMutability": "view",
      "type": "function"
    },
    {
      "inputs": [
        {
          "internalType": "address",
          "name": "_owner",
          "type": "address"
        },
        {
          "internalType": "address",
          "name": "_operator",
          "type": "address"
        }
      ],
      "name": "isApprovedForAll",
      "outputs": [
        {
          "internalType": "bool",
          "name": "",
          "type": "bool"
        }
      ],
      "stateMutability": "view",
      "type": "function"
    },
    {
      "inputs": [
        {
          "internalType": "address",
          "name": "to",
          "type": "address"
        },
        {
          "internalType": "string",
          "name": "uri",
          "type": "string"
        },
        {
          "internalType": "uint256",
          "name": "num",
          "type": "uint256"
        }
      ],
      "name": "mint",
      "outputs": [
        {
          "internalType": "uint256[]",
          "name": "",
          "type": "uint256[]"
        }
      ],
      "stateMutability": "nonpayable",
      "type": "function"
    },
    {
      "inputs": [
        {
          "internalType": "address[]",
          "name": "targets",
          "type": "address[]"
        },
        {
          "internalType": "string[]",
          "name": "uris",
          "type": "string[]"
        }
      ],
      "name": "mintMulti",
      "outputs": [
        {
          "internalType": "uint256[]",
          "name": "tokenIds",
          "type": "uint256[]"
        }
      ],
      "stateMutability": "nonpayable",
      "type": "function"
    },
    {
      "inputs": [
        {
          "internalType": "uint256",
          "name": "tokenId",
          "type": "uint256"
        }
      ],
      "name": "burn",
      "outputs": [],
      "stateMutability": "nonpayable",
      "type": "function"
    },
    {
      "inputs": [
        {
          "internalType": "address",
          "name": "_operator",
          "type": "address"
        },
        {
          "internalType": "address",
          "name": "_from",
          "type": "address"
        },
        {
          "internalType": "uint256",
          "name": "_tokenId",
          "type": "uint256"
        },
        {
          "internalType": "bytes",
          "name": "_data",
          "type": "bytes"
        }
      ],
      "name": "onERC721Received",
      "outputs": [
        {
          "internalType": "bytes4",
          "name": "",
          "type": "bytes4"
        }
      ],
      "stateMutability": "nonpayable",
      "type": "function"
    },
    {
      "inputs": [],
      "name": "name",
      "outputs": [
        {
          "internalType": "string",
          "name": "",
          "type": "string"
        }
      ],
      "stateMutability": "view",
      "type": "function"
    },
    {
      "inputs": [],
      "name": "symbol",
      "outputs": [
        {
          "internalType": "string",
          "name": "",
          "type": "string"
        }
      ],
      "stateMutability": "view",
      "type": "function"
    },
    {
      "inputs": [
        {
          "internalType": "uint256",
          "name": "_tokenId",
          "type": "uint256"
        }
      ],
      "name": "tokenURI",
      "outputs": [
        {
          "internalType": "string",
          "name": "",
          "type": "string"
        }
      ],
      "stateMutability": "view",
      "type": "function"
    },
    {
      "inputs": [
        {
          "internalType": "address",
          "name": "_owner",
          "type": "address"
        }
      ],
      "name": "tokensByOwner",
      "outputs": [
        {
          "internalType": "uint256[]",
          "name": "",
          "type": "uint256[]"
        }
      ],
      "stateMutability": "view",
      "type": "function"
    }
  ],
  "bytecode": "0x608060405260006003553480156200001657600080fd5b5060405162003d1938038062003d1983398181016040528101906200003c91906200031d565b60016000806301ffc9a760e01b7bffffffffffffffffffffffffffffffffffffffffffffffffffffffff1916815260200190815260200160002060006101000a81548160ff02191690831515021790555060016000806380ac58cd60e01b7bffffffffffffffffffffffffffffffffffffffffffffffffffffffff1916815260200190815260200160002060006101000a81548160ff0219169083151502179055506001600080635b5e139f60e01b7bffffffffffffffffffffffffffffffffffffffffffffffffffffffff1916815260200190815260200160002060006101000a81548160ff021916908315150217905550600160008063150b7a0260e01b7bffffffffffffffffffffffffffffffffffffffffffffffffffffffff1916815260200190815260200160002060006101000a81548160ff021916908315150217905550816002908051906020019062000198929190620001fb565b508060019080519060200190620001b1929190620001fb565b5033600560006101000a81548173ffffffffffffffffffffffffffffffffffffffff021916908373ffffffffffffffffffffffffffffffffffffffff160217905550505062000500565b828054620002099062000425565b90600052602060002090601f0160209004810192826200022d576000855562000279565b82601f106200024857805160ff191683800117855562000279565b8280016001018555821562000279579182015b82811115620002785782518255916020019190600101906200025b565b5b5090506200028891906200028c565b5090565b5b80821115620002a75760008160009055506001016200028d565b5090565b6000620002c2620002bc84620003b9565b62000390565b905082815260208101848484011115620002db57600080fd5b620002e8848285620003ef565b509392505050565b600082601f8301126200030257600080fd5b815162000314848260208601620002ab565b91505092915050565b600080604083850312156200033157600080fd5b600083015167ffffffffffffffff8111156200034c57600080fd5b6200035a85828601620002f0565b925050602083015167ffffffffffffffff8111156200037857600080fd5b6200038685828601620002f0565b9150509250929050565b60006200039c620003af565b9050620003aa82826200045b565b919050565b6000604051905090565b600067ffffffffffffffff821115620003d757620003d6620004c0565b5b620003e282620004ef565b9050602081019050919050565b60005b838110156200040f578082015181840152602081019050620003f2565b838111156200041f576000848401525b50505050565b600060028204905060018216806200043e57607f821691505b6020821081141562000455576200045462000491565b5b50919050565b6200046682620004ef565b810181811067ffffffffffffffff82111715620004885762000487620004c0565b5b80604052505050565b7f4e487b7100000000000000000000000000000000000000000000000000000000600052602260045260246000fd5b7f4e487b7100000000000000000000000000000000000000000000000000000000600052604160045260246000fd5b6000601f19601f8301169050919050565b61380980620005106000396000f3fe608060405234801561001057600080fd5b50600436106101215760003560e01c806342966c68116100ad578063a22cb46511610071578063a22cb46514610352578063b88d4fde1461036e578063ba7aef431461038a578063c87b56dd146103ba578063e985e9c5146103ea57610121565b806342966c68146102885780634f64b2be146102a45780636352211e146102d457806370a082311461030457806395d89b411461033457610121565b80630d381a28116100f45780630d381a28146101c05780630e774650146101f0578063150b7a021461022057806323b872dd1461025057806342842e0e1461026c57610121565b806301ffc9a71461012657806306fdde0314610156578063081812fc14610174578063095ea7b3146101a4575b600080fd5b610140600480360381019061013b9190612d30565b61041a565b60405161014d919061310b565b60405180910390f35b61015e610481565b60405161016b9190613141565b60405180910390f35b61018e60048036038101906101899190612d82565b610513565b60405161019b9190613082565b60405180910390f35b6101be60048036038101906101b99190612c7f565b6105f5565b005b6101da60048036038101906101d59190612aa3565b610937565b6040516101e791906130e9565b60405180910390f35b61020a60048036038101906102059190612cbb565b6109ce565b60405161021791906130e9565b60405180910390f35b61023a60048036038101906102359190612b57565b610d87565b6040516102479190613126565b60405180910390f35b61026a60048036038101906102659190612b08565b610d9c565b005b61028660048036038101906102819190612b08565b61110a565b005b6102a2600480360381019061029d9190612d82565b61112a565b005b6102be60048036038101906102b99190612d82565b611136565b6040516102cb91906132e3565b60405180910390f35b6102ee60048036038101906102e99190612d82565b61115a565b6040516102fb9190613082565b60405180910390f35b61031e60048036038101906103199190612aa3565b611207565b60405161032b91906132e3565b60405180910390f35b61033c611288565b6040516103499190613141565b60405180910390f35b61036c60048036038101906103679190612bd7565b61131a565b005b61038860048036038101906103839190612b57565b611417565b005b6103a4600480360381019061039f9190612c13565b61146e565b6040516103b191906130e9565b60405180910390f35b6103d460048036038101906103cf9190612d82565b611559565b6040516103e19190613141565b60405180910390f35b61040460048036038101906103ff9190612acc565b6115fe565b604051610411919061310b565b60405180910390f35b6000806000837bffffffffffffffffffffffffffffffffffffffffffffffffffffffff19167bffffffffffffffffffffffffffffffffffffffffffffffffffffffff1916815260200190815260200160002060009054906101000a900460ff169050919050565b606060028054610490906134a1565b80601f01602080910402602001604051908101604052809291908181526020018280546104bc906134a1565b80156105095780601f106104de57610100808354040283529160200191610509565b820191906000526020600020905b8154815290600101906020018083116104ec57829003601f168201915b5050505050905090565b600081600073ffffffffffffffffffffffffffffffffffffffff166008600083815260200190815260200160002060009054906101000a900473ffffffffffffffffffffffffffffffffffffffff1673ffffffffffffffffffffffffffffffffffffffff1614156105b9576040517f08c379a00000000000000000000000000000000000000000000000000000000081526004016105b090613283565b60405180910390fd5b600b600084815260200190815260200160002060009054906101000a900473ffffffffffffffffffffffffffffffffffffffff16915050919050565b8060006008600083815260200190815260200160002060009054906101000a900473ffffffffffffffffffffffffffffffffffffffff1690503373ffffffffffffffffffffffffffffffffffffffff168173ffffffffffffffffffffffffffffffffffffffff1614806106ee5750600c60008273ffffffffffffffffffffffffffffffffffffffff1673ffffffffffffffffffffffffffffffffffffffff16815260200190815260200160002060003373ffffffffffffffffffffffffffffffffffffffff1673ffffffffffffffffffffffffffffffffffffffff16815260200190815260200160002060009054906101000a900460ff165b61072d576040517f08c379a000000000000000000000000000000000000000000000000000000000815260040161072490613263565b60405180910390fd5b82600073ffffffffffffffffffffffffffffffffffffffff166008600083815260200190815260200160002060009054906101000a900473ffffffffffffffffffffffffffffffffffffffff1673ffffffffffffffffffffffffffffffffffffffff1614156107d1576040517f08c379a00000000000000000000000000000000000000000000000000000000081526004016107c890613283565b60405180910390fd5b60006008600086815260200190815260200160002060009054906101000a900473ffffffffffffffffffffffffffffffffffffffff1690508073ffffffffffffffffffffffffffffffffffffffff168673ffffffffffffffffffffffffffffffffffffffff161415610878576040517f08c379a000000000000000000000000000000000000000000000000000000000815260040161086f906131e3565b60405180910390fd5b85600b600087815260200190815260200160002060006101000a81548173ffffffffffffffffffffffffffffffffffffffff021916908373ffffffffffffffffffffffffffffffffffffffff1602179055508573ffffffffffffffffffffffffffffffffffffffff168173ffffffffffffffffffffffffffffffffffffffff167f8c5be1e5ebec7d5bd14f71427d1e84f3dd0314c0f7b2291e5b200ac8c7c3b9258760405161092791906132e3565b60405180910390a3505050505050565b6060600960008373ffffffffffffffffffffffffffffffffffffffff1673ffffffffffffffffffffffffffffffffffffffff1681526020019081526020016000208054806020026020016040519081016040528092919081815260200182805480156109c257602002820191906000526020600020905b8154815260200190600101908083116109ae575b50505050509050919050565b6060600560009054906101000a900473ffffffffffffffffffffffffffffffffffffffff1673ffffffffffffffffffffffffffffffffffffffff163373ffffffffffffffffffffffffffffffffffffffff1614610a60576040517f08c379a0000000000000000000000000000000000000000000000000000000008152600401610a57906131c3565b60405180910390fd5b600085859050118015610a765750600083839050115b610ab5576040517f08c379a0000000000000000000000000000000000000000000000000000000008152600401610aac90613203565b60405180910390fd5b828290508585905014610afd576040517f08c379a0000000000000000000000000000000000000000000000000000000008152600401610af490613243565b60405180910390fd5b60008585905090508067ffffffffffffffff811115610b45577f4e487b7100000000000000000000000000000000000000000000000000000000600052604160045260246000fd5b604051908082528060200260200182016040528015610b735781602001602082028036833780820191505090505b50915060005b81811015610d7d576000858583818110610bbc577f4e487b7100000000000000000000000000000000000000000000000000000000600052603260045260246000fd5b9050602002810190610bce91906132fe565b8080601f016020809104026020016040519081016040528093929190818152602001838380828437600081840152601f19601f820116905080830192505050505050509050610100815110610c58576040517f08c379a0000000000000000000000000000000000000000000000000000000008152600401610c4f906131a3565b60405180910390fd5b6000610cb3898985818110610c96577f4e487b7100000000000000000000000000000000000000000000000000000000600052603260045260246000fd5b9050602002016020810190610cab9190612aa3565b836001611692565b905060005b8151811015610d6757818181518110610cfa577f4e487b7100000000000000000000000000000000000000000000000000000000600052603260045260246000fd5b60200260200101518660018851610d1191906133c6565b81518110610d48577f4e487b7100000000000000000000000000000000000000000000000000000000600052603260045260246000fd5b6020026020010181815250508080610d5f906134d3565b915050610cb8565b5050508080610d75906134d3565b915050610b79565b5050949350505050565b600063150b7a0260e01b905095945050505050565b8060006008600083815260200190815260200160002060009054906101000a900473ffffffffffffffffffffffffffffffffffffffff1690503373ffffffffffffffffffffffffffffffffffffffff168173ffffffffffffffffffffffffffffffffffffffff161480610e6d57503373ffffffffffffffffffffffffffffffffffffffff16600b600084815260200190815260200160002060009054906101000a900473ffffffffffffffffffffffffffffffffffffffff1673ffffffffffffffffffffffffffffffffffffffff16145b80610efe5750600c60008273ffffffffffffffffffffffffffffffffffffffff1673ffffffffffffffffffffffffffffffffffffffff16815260200190815260200160002060003373ffffffffffffffffffffffffffffffffffffffff1673ffffffffffffffffffffffffffffffffffffffff16815260200190815260200160002060009054906101000a900460ff165b610f3d576040517f08c379a0000000000000000000000000000000000000000000000000000000008152600401610f34906132a3565b60405180910390fd5b82600073ffffffffffffffffffffffffffffffffffffffff166008600083815260200190815260200160002060009054906101000a900473ffffffffffffffffffffffffffffffffffffffff1673ffffffffffffffffffffffffffffffffffffffff161415610fe1576040517f08c379a0000000000000000000000000000000000000000000000000000000008152600401610fd890613283565b60405180910390fd5b60006008600086815260200190815260200160002060009054906101000a900473ffffffffffffffffffffffffffffffffffffffff1690508673ffffffffffffffffffffffffffffffffffffffff168173ffffffffffffffffffffffffffffffffffffffff1614611087576040517f08c379a000000000000000000000000000000000000000000000000000000000815260040161107e906132c3565b60405180910390fd5b600073ffffffffffffffffffffffffffffffffffffffff168673ffffffffffffffffffffffffffffffffffffffff1614156110f7576040517f08c379a00000000000000000000000000000000000000000000000000000000081526004016110ee90613223565b60405180910390fd5b611101868661190f565b50505050505050565b611125838383604051806020016040528060008152506119ce565b505050565b61113381611e7f565b50565b6004818154811061114657600080fd5b906000526020600020016000915090505481565b60006008600083815260200190815260200160002060009054906101000a900473ffffffffffffffffffffffffffffffffffffffff169050600073ffffffffffffffffffffffffffffffffffffffff168173ffffffffffffffffffffffffffffffffffffffff161415611202576040517f08c379a00000000000000000000000000000000000000000000000000000000081526004016111f990613283565b60405180910390fd5b919050565b60008073ffffffffffffffffffffffffffffffffffffffff168273ffffffffffffffffffffffffffffffffffffffff161415611278576040517f08c379a000000000000000000000000000000000000000000000000000000000815260040161126f90613223565b60405180910390fd5b61128182612162565b9050919050565b606060018054611297906134a1565b80601f01602080910402602001604051908101604052809291908181526020018280546112c3906134a1565b80156113105780601f106112e557610100808354040283529160200191611310565b820191906000526020600020905b8154815290600101906020018083116112f357829003601f168201915b5050505050905090565b80600c60003373ffffffffffffffffffffffffffffffffffffffff1673ffffffffffffffffffffffffffffffffffffffff16815260200190815260200160002060008473ffffffffffffffffffffffffffffffffffffffff1673ffffffffffffffffffffffffffffffffffffffff16815260200190815260200160002060006101000a81548160ff0219169083151502179055508173ffffffffffffffffffffffffffffffffffffffff163373ffffffffffffffffffffffffffffffffffffffff167f17307eab39ab6107e8899845ad3d59bd9653f200f220920489ca2b5937696c318360405161140b919061310b565b60405180910390a35050565b61146785858585858080601f016020809104026020016040519081016040528093929190818152602001838380828437600081840152601f19601f820116905080830192505050505050506119ce565b5050505050565b6060600560009054906101000a900473ffffffffffffffffffffffffffffffffffffffff1673ffffffffffffffffffffffffffffffffffffffff163373ffffffffffffffffffffffffffffffffffffffff1614611500576040517f08c379a00000000000000000000000000000000000000000000000000000000081526004016114f7906131c3565b60405180910390fd5b61154f8585858080601f016020809104026020016040519081016040528093929190818152602001838380828437600081840152601f19601f8201169050808301925050505050505084611692565b9050949350505050565b6060600760008381526020019081526020016000208054611579906134a1565b80601f01602080910402602001604051908101604052809291908181526020018280546115a5906134a1565b80156115f25780601f106115c7576101008083540402835291602001916115f2565b820191906000526020600020905b8154815290600101906020018083116115d557829003601f168201915b50505050509050919050565b6000600c60008473ffffffffffffffffffffffffffffffffffffffff1673ffffffffffffffffffffffffffffffffffffffff16815260200190815260200160002060008373ffffffffffffffffffffffffffffffffffffffff1673ffffffffffffffffffffffffffffffffffffffff16815260200190815260200160002060009054906101000a900460ff16905092915050565b6060600073ffffffffffffffffffffffffffffffffffffffff168473ffffffffffffffffffffffffffffffffffffffff161415611704576040517f08c379a00000000000000000000000000000000000000000000000000000000081526004016116fb90613223565b60405180910390fd5b6101008351111561174a576040517f08c379a0000000000000000000000000000000000000000000000000000000008152600401611741906131a3565b60405180910390fd5b8167ffffffffffffffff81111561178a577f4e487b7100000000000000000000000000000000000000000000000000000000600052604160045260246000fd5b6040519080825280602002602001820160405280156117b85781602001602082028036833780820191505090505b50905060005b82811015611907576000600360008154809291906117db906134d3565b9190505590506117eb86826121ae565b8573ffffffffffffffffffffffffffffffffffffffff16600073ffffffffffffffffffffffffffffffffffffffff167fddf252ad1be2c89b69c2b068fc378daa952ba7f163c4a11628f55a4df523b3ef8360405161184991906132e3565b60405180910390a361185b8186612372565b6004819080600181540180825580915050600190039060005260206000200160009091909190915055808383815181106118be577f4e487b7100000000000000000000000000000000000000000000000000000000600052603260045260246000fd5b60200260200101818152505060016004805490506118dc91906133c6565b60066000838152602001908152602001600020819055505080806118ff906134d3565b9150506117be565b509392505050565b60006008600083815260200190815260200160002060009054906101000a900473ffffffffffffffffffffffffffffffffffffffff16905061195082612443565b61195a81836124e4565b61196483836121ae565b8273ffffffffffffffffffffffffffffffffffffffff168173ffffffffffffffffffffffffffffffffffffffff167fddf252ad1be2c89b69c2b068fc378daa952ba7f163c4a11628f55a4df523b3ef846040516119c191906132e3565b60405180910390a3505050565b8160006008600083815260200190815260200160002060009054906101000a900473ffffffffffffffffffffffffffffffffffffffff1690503373ffffffffffffffffffffffffffffffffffffffff168173ffffffffffffffffffffffffffffffffffffffff161480611a9f57503373ffffffffffffffffffffffffffffffffffffffff16600b600084815260200190815260200160002060009054906101000a900473ffffffffffffffffffffffffffffffffffffffff1673ffffffffffffffffffffffffffffffffffffffff16145b80611b305750600c60008273ffffffffffffffffffffffffffffffffffffffff1673ffffffffffffffffffffffffffffffffffffffff16815260200190815260200160002060003373ffffffffffffffffffffffffffffffffffffffff1673ffffffffffffffffffffffffffffffffffffffff16815260200190815260200160002060009054906101000a900460ff165b611b6f576040517f08c379a0000000000000000000000000000000000000000000000000000000008152600401611b66906132a3565b60405180910390fd5b83600073ffffffffffffffffffffffffffffffffffffffff166008600083815260200190815260200160002060009054906101000a900473ffffffffffffffffffffffffffffffffffffffff1673ffffffffffffffffffffffffffffffffffffffff161415611c13576040517f08c379a0000000000000000000000000000000000000000000000000000000008152600401611c0a90613283565b60405180910390fd5b60006008600087815260200190815260200160002060009054906101000a900473ffffffffffffffffffffffffffffffffffffffff1690508773ffffffffffffffffffffffffffffffffffffffff168173ffffffffffffffffffffffffffffffffffffffff1614611cb9576040517f08c379a0000000000000000000000000000000000000000000000000000000008152600401611cb0906132c3565b60405180910390fd5b600073ffffffffffffffffffffffffffffffffffffffff168773ffffffffffffffffffffffffffffffffffffffff161415611d29576040517f08c379a0000000000000000000000000000000000000000000000000000000008152600401611d2090613223565b60405180910390fd5b611d33878761190f565b611d528773ffffffffffffffffffffffffffffffffffffffff166127e4565b15611e755760008773ffffffffffffffffffffffffffffffffffffffff1663150b7a02338b8a8a6040518563ffffffff1660e01b8152600401611d98949392919061309d565b602060405180830381600087803b158015611db257600080fd5b505af1158015611dc6573d6000803e3d6000fd5b505050506040513d601f19601f82011682018060405250810190611dea9190612d59565b905063150b7a0260e01b7bffffffffffffffffffffffffffffffffffffffffffffffffffffffff1916817bffffffffffffffffffffffffffffffffffffffffffffffffffffffff191614611e73576040517f08c379a0000000000000000000000000000000000000000000000000000000008152600401611e6a90613183565b60405180910390fd5b505b5050505050505050565b80600073ffffffffffffffffffffffffffffffffffffffff166008600083815260200190815260200160002060009054906101000a900473ffffffffffffffffffffffffffffffffffffffff1673ffffffffffffffffffffffffffffffffffffffff161415611f23576040517f08c379a0000000000000000000000000000000000000000000000000000000008152600401611f1a90613283565b60405180910390fd5b60006008600084815260200190815260200160002060009054906101000a900473ffffffffffffffffffffffffffffffffffffffff169050611f6483612443565b611f6e81846124e4565b600073ffffffffffffffffffffffffffffffffffffffff168173ffffffffffffffffffffffffffffffffffffffff167fddf252ad1be2c89b69c2b068fc378daa952ba7f163c4a11628f55a4df523b3ef85604051611fcc91906132e3565b60405180910390a36000600760008581526020019081526020016000208054611ff4906134a1565b90501461201b5760076000848152602001908152602001600020600061201a919061282f565b5b6000600660008581526020019081526020016000205490506000600160048054905061204791906133c6565b9050600060048281548110612085577f4e487b7100000000000000000000000000000000000000000000000000000000600052603260045260246000fd5b9060005260206000200154905080600484815481106120cd577f4e487b7100000000000000000000000000000000000000000000000000000000600052603260045260246000fd5b90600052602060002001819055506004805480612113577f4e487b7100000000000000000000000000000000000000000000000000000000600052603160045260246000fd5b6001900381819060005260206000200160009055905582600660008381526020019081526020016000208190555060006006600088815260200190815260200160002081905550505050505050565b6000600960008373ffffffffffffffffffffffffffffffffffffffff1673ffffffffffffffffffffffffffffffffffffffff168152602001908152602001600020805490509050919050565b600073ffffffffffffffffffffffffffffffffffffffff166008600083815260200190815260200160002060009054906101000a900473ffffffffffffffffffffffffffffffffffffffff1673ffffffffffffffffffffffffffffffffffffffff1614612250576040517f08c379a000000000000000000000000000000000000000000000000000000000815260040161224790613163565b60405180910390fd5b816008600083815260200190815260200160002060006101000a81548173ffffffffffffffffffffffffffffffffffffffff021916908373ffffffffffffffffffffffffffffffffffffffff160217905550600960008373ffffffffffffffffffffffffffffffffffffffff1673ffffffffffffffffffffffffffffffffffffffff1681526020019081526020016000208190806001815401808255809150506001900390600052602060002001600090919091909150556001600960008473ffffffffffffffffffffffffffffffffffffffff1673ffffffffffffffffffffffffffffffffffffffff1681526020019081526020016000208054905061235791906133c6565b600a6000838152602001908152602001600020819055505050565b81600073ffffffffffffffffffffffffffffffffffffffff166008600083815260200190815260200160002060009054906101000a900473ffffffffffffffffffffffffffffffffffffffff1673ffffffffffffffffffffffffffffffffffffffff161415612416576040517f08c379a000000000000000000000000000000000000000000000000000000000815260040161240d90613283565b60405180910390fd5b8160076000858152602001908152602001600020908051906020019061243d92919061286f565b50505050565b600073ffffffffffffffffffffffffffffffffffffffff16600b600083815260200190815260200160002060009054906101000a900473ffffffffffffffffffffffffffffffffffffffff1673ffffffffffffffffffffffffffffffffffffffff16146124e157600b600082815260200190815260200160002060006101000a81549073ffffffffffffffffffffffffffffffffffffffff02191690555b50565b8173ffffffffffffffffffffffffffffffffffffffff166008600083815260200190815260200160002060009054906101000a900473ffffffffffffffffffffffffffffffffffffffff1673ffffffffffffffffffffffffffffffffffffffff1614612585576040517f08c379a000000000000000000000000000000000000000000000000000000000815260040161257c906132c3565b60405180910390fd5b6008600082815260200190815260200160002060006101000a81549073ffffffffffffffffffffffffffffffffffffffff02191690556000600a600083815260200190815260200160002054905060006001600960008673ffffffffffffffffffffffffffffffffffffffff1673ffffffffffffffffffffffffffffffffffffffff1681526020019081526020016000208054905061262491906133c6565b9050818114612753576000600960008673ffffffffffffffffffffffffffffffffffffffff1673ffffffffffffffffffffffffffffffffffffffff16815260200190815260200160002082815481106126a6577f4e487b7100000000000000000000000000000000000000000000000000000000600052603260045260246000fd5b9060005260206000200154905080600960008773ffffffffffffffffffffffffffffffffffffffff1673ffffffffffffffffffffffffffffffffffffffff168152602001908152602001600020848154811061272b577f4e487b7100000000000000000000000000000000000000000000000000000000600052603260045260246000fd5b906000526020600020018190555082600a600083815260200190815260200160002081905550505b600960008573ffffffffffffffffffffffffffffffffffffffff1673ffffffffffffffffffffffffffffffffffffffff1681526020019081526020016000208054806127c8577f4e487b7100000000000000000000000000000000000000000000000000000000600052603160045260246000fd5b6001900381819060005260206000200160009055905550505050565b60008060007fc5d2460186f7233c927e7db2dcc703c0e500b653ca82273b7bfad8045d85a47060001b9050833f91506000801b82141580156128265750808214155b92505050919050565b50805461283b906134a1565b6000825580601f1061284d575061286c565b601f01602090049060005260206000209081019061286b91906128f5565b5b50565b82805461287b906134a1565b90600052602060002090601f01602090048101928261289d57600085556128e4565b82601f106128b657805160ff19168380011785556128e4565b828001600101855582156128e4579182015b828111156128e35782518255916020019190600101906128c8565b5b5090506128f191906128f5565b5090565b5b8082111561290e5760008160009055506001016128f6565b5090565b60008135905061292181613777565b92915050565b60008083601f84011261293957600080fd5b8235905067ffffffffffffffff81111561295257600080fd5b60208301915083602082028301111561296a57600080fd5b9250929050565b60008083601f84011261298357600080fd5b8235905067ffffffffffffffff81111561299c57600080fd5b6020830191508360208202830111156129b457600080fd5b9250929050565b6000813590506129ca8161378e565b92915050565b6000813590506129df816137a5565b92915050565b6000815190506129f4816137a5565b92915050565b60008083601f840112612a0c57600080fd5b8235905067ffffffffffffffff811115612a2557600080fd5b602083019150836001820283011115612a3d57600080fd5b9250929050565b60008083601f840112612a5657600080fd5b8235905067ffffffffffffffff811115612a6f57600080fd5b602083019150836001820283011115612a8757600080fd5b9250929050565b600081359050612a9d816137bc565b92915050565b600060208284031215612ab557600080fd5b6000612ac384828501612912565b91505092915050565b60008060408385031215612adf57600080fd5b6000612aed85828601612912565b9250506020612afe85828601612912565b9150509250929050565b600080600060608486031215612b1d57600080fd5b6000612b2b86828701612912565b9350506020612b3c86828701612912565b9250506040612b4d86828701612a8e565b9150509250925092565b600080600080600060808688031215612b6f57600080fd5b6000612b7d88828901612912565b9550506020612b8e88828901612912565b9450506040612b9f88828901612a8e565b935050606086013567ffffffffffffffff811115612bbc57600080fd5b612bc8888289016129fa565b92509250509295509295909350565b60008060408385031215612bea57600080fd5b6000612bf885828601612912565b9250506020612c09858286016129bb565b9150509250929050565b60008060008060608587031215612c2957600080fd5b6000612c3787828801612912565b945050602085013567ffffffffffffffff811115612c5457600080fd5b612c6087828801612a44565b93509350506040612c7387828801612a8e565b91505092959194509250565b60008060408385031215612c9257600080fd5b6000612ca085828601612912565b9250506020612cb185828601612a8e565b9150509250929050565b60008060008060408587031215612cd157600080fd5b600085013567ffffffffffffffff811115612ceb57600080fd5b612cf787828801612927565b9450945050602085013567ffffffffffffffff811115612d1657600080fd5b612d2287828801612971565b925092505092959194509250565b600060208284031215612d4257600080fd5b6000612d50848285016129d0565b91505092915050565b600060208284031215612d6b57600080fd5b6000612d79848285016129e5565b91505092915050565b600060208284031215612d9457600080fd5b6000612da284828501612a8e565b91505092915050565b6000612db78383613064565b60208301905092915050565b612dcc816133fa565b82525050565b6000612ddd82613365565b612de78185613393565b9350612df283613355565b8060005b83811015612e23578151612e0a8882612dab565b9750612e1583613386565b925050600181019050612df6565b5085935050505092915050565b612e398161340c565b82525050565b612e4881613418565b82525050565b6000612e5982613370565b612e6381856133a4565b9350612e7381856020860161346e565b612e7c8161357a565b840191505092915050565b6000612e928261337b565b612e9c81856133b5565b9350612eac81856020860161346e565b612eb58161357a565b840191505092915050565b6000612ecd600a836133b5565b9150612ed88261358b565b602082019050919050565b6000612ef06017836133b5565b9150612efb826135b4565b602082019050919050565b6000612f13600c836133b5565b9150612f1e826135dd565b602082019050919050565b6000612f366016836133b5565b9150612f4182613606565b602082019050919050565b6000612f59601f836133b5565b9150612f648261362f565b602082019050919050565b6000612f7c601f836133b5565b9150612f8782613658565b602082019050919050565b6000612f9f600c836133b5565b9150612faa82613681565b602082019050919050565b6000612fc26020836133b5565b9150612fcd826136aa565b602082019050919050565b6000612fe56015836133b5565b9150612ff0826136d3565b602082019050919050565b6000613008600d836133b5565b9150613013826136fc565b602082019050919050565b600061302b601e836133b5565b915061303682613725565b602082019050919050565b600061304e6009836133b5565b91506130598261374e565b602082019050919050565b61306d81613464565b82525050565b61307c81613464565b82525050565b60006020820190506130976000830184612dc3565b92915050565b60006080820190506130b26000830187612dc3565b6130bf6020830186612dc3565b6130cc6040830185613073565b81810360608301526130de8184612e4e565b905095945050505050565b600060208201905081810360008301526131038184612dd2565b905092915050565b60006020820190506131206000830184612e30565b92915050565b600060208201905061313b6000830184612e3f565b92915050565b6000602082019050818103600083015261315b8184612e87565b905092915050565b6000602082019050818103600083015261317c81612ec0565b9050919050565b6000602082019050818103600083015261319c81612ee3565b9050919050565b600060208201905081810360008301526131bc81612f06565b9050919050565b600060208201905081810360008301526131dc81612f29565b9050919050565b600060208201905081810360008301526131fc81612f4c565b9050919050565b6000602082019050818103600083015261321c81612f6f565b9050919050565b6000602082019050818103600083015261323c81612f92565b9050919050565b6000602082019050818103600083015261325c81612fb5565b9050919050565b6000602082019050818103600083015261327c81612fd8565b9050919050565b6000602082019050818103600083015261329c81612ffb565b9050919050565b600060208201905081810360008301526132bc8161301e565b9050919050565b600060208201905081810360008301526132dc81613041565b9050919050565b60006020820190506132f86000830184613073565b92915050565b6000808335600160200384360303811261331757600080fd5b80840192508235915067ffffffffffffffff82111561333557600080fd5b60208301925060018202360383131561334d57600080fd5b509250929050565b6000819050602082019050919050565b600081519050919050565b600081519050919050565b600081519050919050565b6000602082019050919050565b600082825260208201905092915050565b600082825260208201905092915050565b600082825260208201905092915050565b60006133d182613464565b91506133dc83613464565b9250828210156133ef576133ee61351c565b5b828203905092915050565b600061340582613444565b9050919050565b60008115159050919050565b60007fffffffff0000000000000000000000000000000000000000000000000000000082169050919050565b600073ffffffffffffffffffffffffffffffffffffffff82169050919050565b6000819050919050565b60005b8381101561348c578082015181840152602081019050613471565b8381111561349b576000848401525b50505050565b600060028204905060018216806134b957607f821691505b602082108114156134cd576134cc61354b565b5b50919050565b60006134de82613464565b91507fffffffffffffffffffffffffffffffffffffffffffffffffffffffffffffffff8214156135115761351061351c565b5b600182019050919050565b7f4e487b7100000000000000000000000000000000000000000000000000000000600052601160045260246000fd5b7f4e487b7100000000000000000000000000000000000000000000000000000000600052602260045260246000fd5b6000601f19601f8301169050919050565b7f6e66742065786973747300000000000000000000000000000000000000000000600082015250565b7f6e6f742061626c6520746f2072656365697665206e6674000000000000000000600082015250565b7f75726920746f6f206c6f6e670000000000000000000000000000000000000000600082015250565b7f73686f756c6420626520726f6f74206163636f756e7400000000000000000000600082015250565b7f617070726f766564206164647265737320697320746f6b656e206f776e657200600082015250565b7f746172676574206c6973742073686f756c64206e6f7420626520656d70747900600082015250565b7f7a65726f20616464726573730000000000000000000000000000000000000000600082015250565b7f74617267657473276c656e677468206e6f7420657175616c20746f2075726973600082015250565b7f6e6f74206f776e6572206f72206f70657261746f720000000000000000000000600082015250565b7f6e6f742076616c6964206e667400000000000000000000000000000000000000600082015250565b7f6e6f74206f776e657220617070726f766564206f72206f70657261746f720000600082015250565b7f6e6f74206f776e65720000000000000000000000000000000000000000000000600082015250565b613780816133fa565b811461378b57600080fd5b50565b6137978161340c565b81146137a257600080fd5b50565b6137ae81613418565b81146137b957600080fd5b50565b6137c581613464565b81146137d057600080fd5b5056fea2646970667358221220e42ee3b8f277b1aae4b698951144ed9f1c4b05e8d3b2414f0b590fdb3db092ec64736f6c63430008040033",
  "immutableReferences": {},
  "source": "pragma solidity ^0.8.4;\n\nimport \"./utils/ERC165.sol\";\nimport \"./ERC721.sol\";\nimport \"./ERC721TokenReceiver.sol\";\nimport \"./ERC721Metadata.sol\";\nimport \"./utils/support-interface.sol\";\nimport \"./utils/address.sol\";\nimport \"./utils/safe-math.sol\";\n\n/**\n * @dev Implementation of ERC-721 non-fungible token standard.\n */\ncontract NFT721Basic is\n    ERC721,\n    ERC721Metadata,\n    ERC721TokenReceiver,\n    SupportsInterface\n{\n    using SafeMath for uint256;\n    using AddressUtils for address;\n\n    /**\n     * @dev Magic value of a smart contract that can recieve NFT.\n     * Equal to: bytes4(keccak256(\"onERC721Received(address,address,uint256,bytes)\")).\n     */\n    bytes4 internal constant MAGIC_ON_ERC721_RECEIVED = 0x150b7a02;\n\n    /**\n     * @dev An abbreviated name for NFTokens.\n     */\n    string internal _symbol;\n\n    /**\n     * @dev A descriptive name for a collection of NFTs.\n     */\n    string internal _name;\n\n    /**\n     * @dev Count avaiable token id, auto increment.\n     */\n    uint256 internal _availableId = 0;\n\n    /**\n     * @dev Array of all NFT IDs.\n     */\n    uint256[] public tokens;\n\n    /**\n     * @dev Contract owner\n     */\n    address internal root;\n\n    /**\n     * @dev Mapping from token ID to its index in global tokens array.\n     */\n    mapping(uint256 => uint256) internal idToIndex;\n\n    /**\n     * @dev Mapping from NFT ID to metadata uri.\n     */\n    mapping(uint256 => string) internal idToUri;\n\n    /**\n     * @dev A mapping from NFT ID to the address that owns it.\n     */\n    mapping(uint256 => address) internal idToOwner;\n\n    /**\n     * @dev Mapping from owner to list of owned NFT IDs.\n     */\n    mapping(address => uint256[]) internal ownerToIds;\n\n    /**\n     * @dev Mapping from NFT ID to its index in the owner tokens list.\n     */\n    mapping(uint256 => uint256) internal idToOwnerIndex;\n\n    /**\n     * @dev Mapping from NFT ID to approved address.\n     */\n    mapping(uint256 => address) internal idToApproval;\n\n    /**\n     * @dev Mapping from owner address to mapping of operator addresses.\n     */\n    mapping(address => mapping(address => bool)) internal ownerToOperators;\n\n    /**\n     * @dev Guarantees that the msg.sender is an owner or operator of the given NFT.\n     * @param _tokenId ID of the NFT to validate.\n     */\n    modifier canOperate(uint256 _tokenId) {\n        address tokenOwner = idToOwner[_tokenId];\n        require(\n            tokenOwner == msg.sender ||\n                ownerToOperators[tokenOwner][msg.sender],\n            \"not owner or operator\"\n        );\n        _;\n    }\n\n    /**\n     * @dev Guarantees that the msg.sender is allowed to transfer NFT.\n     * @param _tokenId ID of the NFT to transfer.\n     */\n    modifier canTransfer(uint256 _tokenId) {\n        address tokenOwner = idToOwner[_tokenId];\n        require(\n            tokenOwner == msg.sender ||\n                idToApproval[_tokenId] == msg.sender ||\n                ownerToOperators[tokenOwner][msg.sender],\n            \"not owner approved or operator\"\n        );\n        _;\n    }\n\n    /**\n     * @dev Guarantees that _tokenId is a valid Token.\n     * @param _tokenId ID of the NFT to validate.\n     */\n    modifier validNFToken(uint256 _tokenId) {\n        require(idToOwner[_tokenId] != address(0), \"not valid nft\");\n        _;\n    }\n\n    /**\n     * @dev Guarantees that sender is the root account.\n     */\n    modifier onlyRoot() {\n        require(msg.sender == root, \"should be root account\");\n        _;\n    }\n\n    /**\n     * @dev Contract constructor.\n     */\n    constructor(string memory name, string memory symbol) public {\n        supportedInterfaces[0x80ac58cd] = true; // ERC721\n        supportedInterfaces[0x5b5e139f] = true; // ERC721Metadata\n        supportedInterfaces[0x150b7a02] = true; // ERC721TokenReceiver\n        _name = name;\n        _symbol = symbol;\n        root = msg.sender;\n    }\n\n    /**\n     * @dev Transfers the ownership of an NFT from one address to another address. This function can\n     * be changed to payable.\n     * @notice Throws unless `msg.sender` is the current owner, an authorized operator, or the\n     * approved address for this NFT. Throws if `_from` is not the current owner. Throws if `_to` is\n     * the zero address. Throws if `_tokenId` is not a valid NFT. When transfer is complete, this\n     * function checks if `_to` is a smart contract (code size > 0). If so, it calls\n     * `onERC721Received` on `_to` and throws if the return value is not\n     * `bytes4(keccak256(\"onERC721Received(address,uint256,bytes)\"))`.\n     * @param _from The current owner of the NFT.\n     * @param _to The new owner.\n     * @param _tokenId The NFT to transfer.\n     * @param _data Additional data with no specified format, sent in call to `_to`.\n     */\n    function safeTransferFrom(\n        address _from,\n        address _to,\n        uint256 _tokenId,\n        bytes calldata _data\n    ) external override {\n        _safeTransferFrom(_from, _to, _tokenId, _data);\n    }\n\n    /**\n     * @dev Transfers the ownership of an NFT from one address to another address. This function can\n     * be changed to payable.\n     * @notice This works identically to the other function with an extra data parameter, except this\n     * function just sets data to \"\"\n     * @param _from The current owner of the NFT.\n     * @param _to The new owner.\n     * @param _tokenId The NFT to transfer.\n     */\n    function safeTransferFrom(\n        address _from,\n        address _to,\n        uint256 _tokenId\n    ) external override {\n        _safeTransferFrom(_from, _to, _tokenId, \"\");\n    }\n\n    /**\n     * @dev Throws unless `msg.sender` is the current owner, an authorized operator, or the approved\n     * address for this NFT. Throws if `_from` is not the current owner. Throws if `_to` is the zero\n     * address. Throws if `_tokenId` is not a valid NFT. This function can be changed to payable.\n     * @notice The caller is responsible to confirm that `_to` is capable of receiving NFTs or else\n     * they maybe be permanently lost.\n     * @param _from The current owner of the NFT.\n     * @param _to The new owner.\n     * @param _tokenId The NFT to transfer.\n     */\n    function transferFrom(\n        address _from,\n        address _to,\n        uint256 _tokenId\n    ) external override canTransfer(_tokenId) validNFToken(_tokenId) {\n        address tokenOwner = idToOwner[_tokenId];\n        require(tokenOwner == _from, \"not owner\");\n        require(_to != address(0), \"zero address\");\n\n        _transfer(_to, _tokenId);\n    }\n\n    /**\n     * @dev Set or reaffirm the approved address for an NFT. This function can be changed to payable.\n     * @notice The zero address indicates there is no approved address. Throws unless `msg.sender` is\n     * the current NFT owner, or an authorized operator of the current owner.\n     * @param _approved Address to be approved for the given NFT ID.\n     * @param _tokenId ID of the token to be approved.\n     */\n    function approve(address _approved, uint256 _tokenId)\n        external\n        override\n        canOperate(_tokenId)\n        validNFToken(_tokenId)\n    {\n        address tokenOwner = idToOwner[_tokenId];\n        require(_approved != tokenOwner, \"approved address is token owner\");\n\n        idToApproval[_tokenId] = _approved;\n        emit Approval(tokenOwner, _approved, _tokenId);\n    }\n\n    /**\n     * @dev Enables or disables approval for a third party (\"operator\") to manage all of\n     * `msg.sender`'s assets. It also emits the ApprovalForAll event.\n     * @notice This works even if sender doesn't own any tokens at the time.\n     * @param _operator Address to add to the set of authorized operators.\n     * @param _approved True if the operators is approved, false to revoke approval.\n     */\n    function setApprovalForAll(address _operator, bool _approved)\n        external\n        override\n    {\n        ownerToOperators[msg.sender][_operator] = _approved;\n        emit ApprovalForAll(msg.sender, _operator, _approved);\n    }\n\n    /**\n     * @dev Returns the number of NFTs owned by `_owner`. NFTs assigned to the zero address are\n     * considered invalid, and this function throws for queries about the zero address.\n     * @param _owner Address for whom to query the balance.\n     * @return Balance of _owner.\n     */\n    function balanceOf(address _owner)\n        external\n        view\n        override\n        returns (uint256)\n    {\n        require(_owner != address(0), \"zero address\");\n        return _getOwnerNFTCount(_owner);\n    }\n\n    /**\n     * @dev Returns the address of the owner of the NFT. NFTs assigned to zero address are considered\n     * invalid, and queries about them do throw.\n     * @param _tokenId The identifier for an NFT.\n     * @return _owner Address of _tokenId owner.\n     */\n    function ownerOf(uint256 _tokenId)\n        external\n        view\n        override\n        returns (address _owner)\n    {\n        _owner = idToOwner[_tokenId];\n        require(_owner != address(0), \"not valid nft\");\n    }\n\n    /**\n     * @dev Get the approved address for a single NFT.\n     * @notice Throws if `_tokenId` is not a valid NFT.\n     * @param _tokenId ID of the NFT to query the approval of.\n     * @return Address that _tokenId is approved for.\n     */\n    function getApproved(uint256 _tokenId)\n        external\n        view\n        override\n        validNFToken(_tokenId)\n        returns (address)\n    {\n        return idToApproval[_tokenId];\n    }\n\n    /**\n     * @dev Checks if `_operator` is an approved operator for `_owner`.\n     * @param _owner The address that owns the NFTs.\n     * @param _operator The address that acts on behalf of the owner.\n     * @return True if approved for all, false otherwise.\n     */\n    function isApprovedForAll(address _owner, address _operator)\n        external\n        view\n        override\n        returns (bool)\n    {\n        return ownerToOperators[_owner][_operator];\n    }\n\n    /**\n     * @dev Actually preforms the transfer.\n     * @notice Does NO checks.\n     * @param _to Address of a new owner.\n     * @param _tokenId The NFT that is being transferred.\n     */\n    function _transfer(address _to, uint256 _tokenId) internal {\n        address from = idToOwner[_tokenId];\n        _clearApproval(_tokenId);\n\n        _removeNFToken(from, _tokenId);\n        _addNFToken(_to, _tokenId);\n\n        emit Transfer(from, _to, _tokenId);\n    }\n\n    /**\n     * @dev Mints a new NFT.\n     * @param to The address that will own the minted NFT.\n     * @param uri of the NFT to be minted by the msg.sender.\n     */\n    function mint(\n        address to,\n        string calldata uri,\n        uint256 num\n    ) external onlyRoot returns (uint256[] memory) {\n        return _mint(to, uri, num);\n    }\n\n    /**\n     * @dev Mints a new NFT.\n     * @param targets The address list that will own the minted NFT.\n     * @param uris Uri list to be assigned to minted NFT.\n     */\n    function mintMulti(address[] calldata targets, string[] calldata uris)\n        external\n        onlyRoot\n        returns (uint256[] memory tokenIds)\n    {\n        require(\n            targets.length > 0 && uris.length > 0,\n            \"target list should not be empty\"\n        );\n        require(\n            targets.length == uris.length,\n            \"targets'length not equal to uris\"\n        );\n        uint256 num = targets.length;\n        tokenIds = new uint256[](num);\n        for (uint256 i = 0; i < num; i++) {\n            string memory _uri = uris[i];\n            require(bytes(_uri).length < 256, \"uri too long\");\n            uint256[] memory _tokenIds = _mint(targets[i], _uri, 1);\n            for (uint256 j = 0; j < _tokenIds.length; j++) {\n                tokenIds[tokenIds.length - 1] = _tokenIds[j];\n            }\n        }\n    }\n\n    /**\n     * @dev Mints a new NFT.\n     * @notice This is an internal function which should be called from user-implemented external\n     * mint function. Its purpose is to show and properly initialize data structures when using this\n     * implementation.\n     * @param _to The address that will own the minted NFT.\n     * @param _uri of the NFT to be minted by the msg.sender.\n     */\n    function _mint(\n        address _to,\n        string memory _uri,\n        uint256 _num\n    ) internal virtual returns (uint256[] memory tokenIds) {\n        require(_to != address(0), \"zero address\");\n        require(bytes(_uri).length <= 256, \"uri too long\");\n        tokenIds = new uint256[](_num);\n        for (uint256 i = 0; i < _num; i++) {\n            // avaialbe token id\n            uint256 _tokenId = _availableId++;\n\n            _addNFToken(_to, _tokenId);\n\n            emit Transfer(address(0), _to, _tokenId);\n\n            _setTokenUri(_tokenId, _uri);\n\n            tokens.push(_tokenId);\n            tokenIds[i] = _tokenId;\n            idToIndex[_tokenId] = tokens.length - 1;\n        }\n    }\n\n    /**\n     * @dev Burns a NFT.\n     * @param tokenId ID of the NFT to be burned.\n     */\n    function burn(uint256 tokenId) external {\n        _burn(tokenId);\n    }\n\n    /**\n     * @dev Burns a NFT.\n     * @notice This is an internal function which should be called from user-implemented external burn\n     * function. Its purpose is to show and properly initialize data structures when using this\n     * implementation. Also, note that this burn implementation allows the minter to re-mint a burned\n     * NFT.\n     * @param _tokenId ID of the NFT to be burned.\n     */\n    function _burn(uint256 _tokenId) internal virtual validNFToken(_tokenId) {\n        address tokenOwner = idToOwner[_tokenId];\n        _clearApproval(_tokenId);\n        _removeNFToken(tokenOwner, _tokenId);\n        emit Transfer(tokenOwner, address(0), _tokenId);\n\n        if (bytes(idToUri[_tokenId]).length != 0) {\n            delete idToUri[_tokenId];\n        }\n\n        uint256 tokenIndex = idToIndex[_tokenId];\n        uint256 lastTokenIndex = tokens.length - 1;\n        uint256 lastToken = tokens[lastTokenIndex];\n\n        tokens[tokenIndex] = lastToken;\n\n        tokens.pop();\n        // This wastes gas if you are burning the last token but saves a little gas if you are not.\n        idToIndex[lastToken] = tokenIndex;\n        idToIndex[_tokenId] = 0;\n    }\n\n    /**\n     * @dev Removes a NFT from owner.\n     * @notice Use and override this function with caution. Wrong usage can have serious consequences.\n     * @param _from Address from wich we want to remove the NFT.\n     * @param _tokenId Which NFT we want to remove.\n     */\n    function _removeNFToken(address _from, uint256 _tokenId) internal virtual {\n        require(idToOwner[_tokenId] == _from, \"not owner\");\n        delete idToOwner[_tokenId];\n\n        uint256 tokenToRemoveIndex = idToOwnerIndex[_tokenId];\n        uint256 lastTokenIndex = ownerToIds[_from].length - 1;\n\n        if (lastTokenIndex != tokenToRemoveIndex) {\n            uint256 lastToken = ownerToIds[_from][lastTokenIndex];\n            ownerToIds[_from][tokenToRemoveIndex] = lastToken;\n            idToOwnerIndex[lastToken] = tokenToRemoveIndex;\n        }\n\n        ownerToIds[_from].pop();\n    }\n\n    /**\n     * @dev Assignes a new NFT to owner.\n     * @notice Use and override this function with caution. Wrong usage can have serious consequences.\n     * @param _to Address to wich we want to add the NFT.\n     * @param _tokenId Which NFT we want to add.\n     */\n    function _addNFToken(address _to, uint256 _tokenId) internal virtual {\n        require(idToOwner[_tokenId] == address(0), \"nft exists\");\n        idToOwner[_tokenId] = _to;\n\n        ownerToIds[_to].push(_tokenId);\n        idToOwnerIndex[_tokenId] = ownerToIds[_to].length - 1;\n    }\n\n    /**\n     * @dev Set a distinct URI (RFC 3986) for a given NFT ID.\n     * @notice This is an internal function which should be called from user-implemented external\n     * function. Its purpose is to show and properly initialize data structures when using this\n     * implementation.\n     * @param _tokenId Id for which we want uri.\n     * @param _uri String representing RFC 3986 URI.\n     */\n    function _setTokenUri(uint256 _tokenId, string memory _uri)\n        internal\n        validNFToken(_tokenId)\n    {\n        idToUri[_tokenId] = _uri;\n    }\n\n    /**\n     * @dev Helper function that gets NFT count of owner. This is needed for overriding in enumerable\n     * extension to remove double storage (gas optimization) of owner nft count.\n     * @param _owner Address for whom to query the count.\n     * @return Number of _owner NFTs.\n     */\n    function _getOwnerNFTCount(address _owner)\n        internal\n        view\n        virtual\n        returns (uint256)\n    {\n        return ownerToIds[_owner].length;\n    }\n\n    /**\n     * @dev Actually perform the safeTransferFrom.\n     * @param _from The current owner of the NFT.\n     * @param _to The new owner.\n     * @param _tokenId The NFT to transfer.\n     * @param _data Additional data with no specified format, sent in call to `_to`.\n     */\n    function _safeTransferFrom(\n        address _from,\n        address _to,\n        uint256 _tokenId,\n        bytes memory _data\n    ) private canTransfer(_tokenId) validNFToken(_tokenId) {\n        address tokenOwner = idToOwner[_tokenId];\n        require(tokenOwner == _from, \"not owner\");\n        require(_to != address(0), \"zero address\");\n\n        _transfer(_to, _tokenId);\n\n        if (_to.isContract()) {\n            bytes4 retval =\n                ERC721TokenReceiver(_to).onERC721Received(\n                    msg.sender,\n                    _from,\n                    _tokenId,\n                    _data\n                );\n            require(\n                retval == MAGIC_ON_ERC721_RECEIVED,\n                \"not able to receive nft\"\n            );\n        }\n    }\n\n    /**\n     * @dev Clears the current approval of a given NFT ID.\n     * @param _tokenId ID of the NFT to be transferred.\n     */\n    function _clearApproval(uint256 _tokenId) private {\n        if (idToApproval[_tokenId] != address(0)) {\n            delete idToApproval[_tokenId];\n        }\n    }\n\n    /// @notice Handle the receipt of an NFT\n    /// @dev The ERC721 smart contract calls this function on the recipient\n    ///  after a `transfer`. This function MAY throw to revert and reject the\n    ///  transfer. Return of other than the magic value MUST result in the\n    ///  transaction being reverted.\n    ///  Note: the contract address is always the message sender.\n    /// @param _operator The address which called `safeTransferFrom` function\n    /// @param _from The address which previously owned the token\n    /// @param _tokenId The NFT identifier which is being transferred\n    /// @param _data Additional data with no specified format\n    /// @return `bytes4(keccak256(\"onERC721Received(address,address,uint256,bytes)\"))`\n    ///  unless throwing\n    function onERC721Received(\n        address _operator,\n        address _from,\n        uint256 _tokenId,\n        bytes calldata _data\n    ) external override returns (bytes4) {\n        return MAGIC_ON_ERC721_RECEIVED;\n    }\n\n    /// @notice A descriptive name for a collection of NFTs in this contract\n    function name() external view override returns (string memory) {\n        return _name;\n    }\n\n    /// @notice An abbreviated name for NFTs in this contract\n    function symbol() external view override returns (string memory) {\n        return _symbol;\n    }\n\n    /// @notice A distinct Uniform Resource Identifier (URI) for a given asset.\n    /// @dev Throws if `_tokenId` is not a valid NFT. URIs are defined in RFC\n    ///  3986. The URI may point to a JSON file that conforms to the \"ERC721\n    ///  Metadata JSON Schema\".\n    function tokenURI(uint256 _tokenId)\n        external\n        view\n        override\n        returns (string memory)\n    {\n        return idToUri[_tokenId];\n    }\n\n    /**\n     * @notice Return the tokens owned by an address.\n     */\n    function tokensByOwner(address _owner)\n        external\n        view\n        returns (uint256[] memory)\n    {\n        return ownerToIds[_owner];\n    }\n}\n",
  "sourcePath": "/Users/lowesyang/Documents/Byterum/Products/NFT-GO/moonlight/erc721-contract/contracts/NFT721Basic.sol",
  "compiler": {
    "name": "solc",
    "version": "0.8.4+commit.c7e474f2.Emscripten.clang"
  },
  "schemaVersion": "3.4.1",
  "updatedAt": "2021-06-16T09:45:14.094Z",
  "devdoc": {
    "details": "Implementation of ERC-721 non-fungible token standard.",
    "kind": "dev",
    "methods": {
      "approve(address,uint256)": {
        "details": "Set or reaffirm the approved address for an NFT. This function can be changed to payable.",
        "params": {
          "_approved": "Address to be approved for the given NFT ID.",
          "_tokenId": "ID of the token to be approved."
        }
      },
      "balanceOf(address)": {
        "details": "Returns the number of NFTs owned by `_owner`. NFTs assigned to the zero address are considered invalid, and this function throws for queries about the zero address.",
        "params": {
          "_owner": "Address for whom to query the balance."
        },
        "returns": {
          "_0": "Balance of _owner."
        }
      },
      "burn(uint256)": {
        "details": "Burns a NFT.",
        "params": {
          "tokenId": "ID of the NFT to be burned."
        }
      },
      "constructor": {
        "details": "Contract constructor."
      },
      "getApproved(uint256)": {
        "details": "Get the approved address for a single NFT.",
        "params": {
          "_tokenId": "ID of the NFT to query the approval of."
        },
        "returns": {
          "_0": "Address that _tokenId is approved for."
        }
      },
      "isApprovedForAll(address,address)": {
        "details": "Checks if `_operator` is an approved operator for `_owner`.",
        "params": {
          "_operator": "The address that acts on behalf of the owner.",
          "_owner": "The address that owns the NFTs."
        },
        "returns": {
          "_0": "True if approved for all, false otherwise."
        }
      },
      "mint(address,string,uint256)": {
        "details": "Mints a new NFT.",
        "params": {
          "to": "The address that will own the minted NFT.",
          "uri": "of the NFT to be minted by the msg.sender."
        }
      },
      "mintMulti(address[],string[])": {
        "details": "Mints a new NFT.",
        "params": {
          "targets": "The address list that will own the minted NFT.",
          "uris": "Uri list to be assigned to minted NFT."
        }
      },
      "onERC721Received(address,address,uint256,bytes)": {
        "details": "The ERC721 smart contract calls this function on the recipient  after a `transfer`. This function MAY throw to revert and reject the  transfer. Return of other than the magic value MUST result in the  transaction being reverted.  Note: the contract address is always the message sender.",
        "params": {
          "_data": "Additional data with no specified format",
          "_from": "The address which previously owned the token",
          "_operator": "The address which called `safeTransferFrom` function",
          "_tokenId": "The NFT identifier which is being transferred"
        },
        "returns": {
          "_0": "`bytes4(keccak256(\"onERC721Received(address,address,uint256,bytes)\"))`  unless throwing"
        }
      },
      "ownerOf(uint256)": {
        "details": "Returns the address of the owner of the NFT. NFTs assigned to zero address are considered invalid, and queries about them do throw.",
        "params": {
          "_tokenId": "The identifier for an NFT."
        },
        "returns": {
          "_owner": "Address of _tokenId owner."
        }
      },
      "safeTransferFrom(address,address,uint256)": {
        "details": "Transfers the ownership of an NFT from one address to another address. This function can be changed to payable.",
        "params": {
          "_from": "The current owner of the NFT.",
          "_to": "The new owner.",
          "_tokenId": "The NFT to transfer."
        }
      },
      "safeTransferFrom(address,address,uint256,bytes)": {
        "details": "Transfers the ownership of an NFT from one address to another address. This function can be changed to payable.",
        "params": {
          "_data": "Additional data with no specified format, sent in call to `_to`.",
          "_from": "The current owner of the NFT.",
          "_to": "The new owner.",
          "_tokenId": "The NFT to transfer."
        }
      },
      "setApprovalForAll(address,bool)": {
        "details": "Enables or disables approval for a third party (\"operator\") to manage all of `msg.sender`'s assets. It also emits the ApprovalForAll event.",
        "params": {
          "_approved": "True if the operators is approved, false to revoke approval.",
          "_operator": "Address to add to the set of authorized operators."
        }
      },
      "supportsInterface(bytes4)": {
        "details": "Function to check which interfaces are suported by this contract.",
        "params": {
          "_interfaceID": "Id of the interface."
        },
        "returns": {
          "_0": "True if _interfaceID is supported, false otherwise."
        }
      },
      "tokenURI(uint256)": {
        "details": "Throws if `_tokenId` is not a valid NFT. URIs are defined in RFC  3986. The URI may point to a JSON file that conforms to the \"ERC721  Metadata JSON Schema\"."
      },
      "transferFrom(address,address,uint256)": {
        "details": "Throws unless `msg.sender` is the current owner, an authorized operator, or the approved address for this NFT. Throws if `_from` is not the current owner. Throws if `_to` is the zero address. Throws if `_tokenId` is not a valid NFT. This function can be changed to payable.",
        "params": {
          "_from": "The current owner of the NFT.",
          "_to": "The new owner.",
          "_tokenId": "The NFT to transfer."
        }
      }
    },
    "stateVariables": {
      "MAGIC_ON_ERC721_RECEIVED": {
        "details": "Magic value of a smart contract that can recieve NFT. Equal to: bytes4(keccak256(\"onERC721Received(address,address,uint256,bytes)\"))."
      },
      "_availableId": {
        "details": "Count avaiable token id, auto increment."
      },
      "_name": {
        "details": "A descriptive name for a collection of NFTs."
      },
      "_symbol": {
        "details": "An abbreviated name for NFTokens."
      },
      "idToApproval": {
        "details": "Mapping from NFT ID to approved address."
      },
      "idToIndex": {
        "details": "Mapping from token ID to its index in global tokens array."
      },
      "idToOwner": {
        "details": "A mapping from NFT ID to the address that owns it."
      },
      "idToOwnerIndex": {
        "details": "Mapping from NFT ID to its index in the owner tokens list."
      },
      "idToUri": {
        "details": "Mapping from NFT ID to metadata uri."
      },
      "ownerToIds": {
        "details": "Mapping from owner to list of owned NFT IDs."
      },
      "ownerToOperators": {
        "details": "Mapping from owner address to mapping of operator addresses."
      },
      "root": {
        "details": "Contract owner"
      },
      "tokens": {
        "details": "Array of all NFT IDs."
      }
    },
    "version": 1
  },
  "userdoc": {
    "kind": "user",
    "methods": {
      "approve(address,uint256)": {
        "notice": "The zero address indicates there is no approved address. Throws unless `msg.sender` is the current NFT owner, or an authorized operator of the current owner."
      },
      "getApproved(uint256)": {
        "notice": "Throws if `_tokenId` is not a valid NFT."
      },
      "name()": {
        "notice": "A descriptive name for a collection of NFTs in this contract"
      },
      "onERC721Received(address,address,uint256,bytes)": {
        "notice": "Handle the receipt of an NFT"
      },
      "safeTransferFrom(address,address,uint256)": {
        "notice": "This works identically to the other function with an extra data parameter, except this function just sets data to \"\""
      },
      "safeTransferFrom(address,address,uint256,bytes)": {
        "notice": "Throws unless `msg.sender` is the current owner, an authorized operator, or the approved address for this NFT. Throws if `_from` is not the current owner. Throws if `_to` is the zero address. Throws if `_tokenId` is not a valid NFT. When transfer is complete, this function checks if `_to` is a smart contract (code size > 0). If so, it calls `onERC721Received` on `_to` and throws if the return value is not `bytes4(keccak256(\"onERC721Received(address,uint256,bytes)\"))`."
      },
      "setApprovalForAll(address,bool)": {
        "notice": "This works even if sender doesn't own any tokens at the time."
      },
      "symbol()": {
        "notice": "An abbreviated name for NFTs in this contract"
      },
      "tokenURI(uint256)": {
        "notice": "A distinct Uniform Resource Identifier (URI) for a given asset."
      },
      "tokensByOwner(address)": {
        "notice": "Return the tokens owned by an address."
      },
      "transferFrom(address,address,uint256)": {
        "notice": "The caller is responsible to confirm that `_to` is capable of receiving NFTs or else they maybe be permanently lost."
      }
    },
    "version": 1
  }
}