{
  "contractName": "NFT721Enumerable",
  "abi": [
    {
      "inputs": [
        {
          "internalType": "string",
          "name": "name",
          "type": "string"
        },
        {
          "internalType": "string",
          "name": "symbol",
          "type": "string"
        }
      ],
      "stateMutability": "nonpayable",
      "type": "constructor"
    },
    {
      "anonymous": false,
      "inputs": [
        {
          "indexed": true,
          "internalType": "address",
          "name": "_owner",
          "type": "address"
        },
        {
          "indexed": true,
          "internalType": "address",
          "name": "_approved",
          "type": "address"
        },
        {
          "indexed": false,
          "internalType": "uint256",
          "name": "_tokenId",
          "type": "uint256"
        }
      ],
      "name": "Approval",
      "type": "event"
    },
    {
      "anonymous": false,
      "inputs": [
        {
          "indexed": true,
          "internalType": "address",
          "name": "_owner",
          "type": "address"
        },
        {
          "indexed": true,
          "internalType": "address",
          "name": "_operator",
          "type": "address"
        },
        {
          "indexed": false,
          "internalType": "bool",
          "name": "_approved",
          "type": "bool"
        }
      ],
      "name": "ApprovalForAll",
      "type": "event"
    },
    {
      "anonymous": false,
      "inputs": [
        {
          "indexed": true,
          "internalType": "address",
          "name": "_from",
          "type": "address"
        },
        {
          "indexed": true,
          "internalType": "address",
          "name": "_to",
          "type": "address"
        },
        {
          "indexed": false,
          "internalType": "uint256",
          "name": "_tokenId",
          "type": "uint256"
        }
      ],
      "name": "Transfer",
      "type": "event"
    },
    {
      "inputs": [
        {
          "internalType": "address",
          "name": "_approved",
          "type": "address"
        },
        {
          "internalType": "uint256",
          "name": "_tokenId",
          "type": "uint256"
        }
      ],
      "name": "approve",
      "outputs": [],
      "stateMutability": "nonpayable",
      "type": "function"
    },
    {
      "inputs": [
        {
          "internalType": "address",
          "name": "_owner",
          "type": "address"
        }
      ],
      "name": "balanceOf",
      "outputs": [
        {
          "internalType": "uint256",
          "name": "",
          "type": "uint256"
        }
      ],
      "stateMutability": "view",
      "type": "function"
    },
    {
      "inputs": [
        {
          "internalType": "uint256",
          "name": "tokenId",
          "type": "uint256"
        }
      ],
      "name": "burn",
      "outputs": [],
      "stateMutability": "nonpayable",
      "type": "function"
    },
    {
      "inputs": [
        {
          "internalType": "uint256",
          "name": "_tokenId",
          "type": "uint256"
        }
      ],
      "name": "getApproved",
      "outputs": [
        {
          "internalType": "address",
          "name": "",
          "type": "address"
        }
      ],
      "stateMutability": "view",
      "type": "function"
    },
    {
      "inputs": [
        {
          "internalType": "address",
          "name": "_owner",
          "type": "address"
        },
        {
          "internalType": "address",
          "name": "_operator",
          "type": "address"
        }
      ],
      "name": "isApprovedForAll",
      "outputs": [
        {
          "internalType": "bool",
          "name": "",
          "type": "bool"
        }
      ],
      "stateMutability": "view",
      "type": "function"
    },
    {
      "inputs": [
        {
          "internalType": "address",
          "name": "to",
          "type": "address"
        },
        {
          "internalType": "string",
          "name": "uri",
          "type": "string"
        },
        {
          "internalType": "uint256",
          "name": "num",
          "type": "uint256"
        }
      ],
      "name": "mint",
      "outputs": [
        {
          "internalType": "uint256[]",
          "name": "",
          "type": "uint256[]"
        }
      ],
      "stateMutability": "nonpayable",
      "type": "function"
    },
    {
      "inputs": [
        {
          "internalType": "address[]",
          "name": "targets",
          "type": "address[]"
        },
        {
          "internalType": "string[]",
          "name": "uris",
          "type": "string[]"
        }
      ],
      "name": "mintMulti",
      "outputs": [
        {
          "internalType": "uint256[]",
          "name": "tokenIds",
          "type": "uint256[]"
        }
      ],
      "stateMutability": "nonpayable",
      "type": "function"
    },
    {
      "inputs": [],
      "name": "name",
      "outputs": [
        {
          "internalType": "string",
          "name": "",
          "type": "string"
        }
      ],
      "stateMutability": "view",
      "type": "function"
    },
    {
      "inputs": [
        {
          "internalType": "address",
          "name": "_operator",
          "type": "address"
        },
        {
          "internalType": "address",
          "name": "_from",
          "type": "address"
        },
        {
          "internalType": "uint256",
          "name": "_tokenId",
          "type": "uint256"
        },
        {
          "internalType": "bytes",
          "name": "_data",
          "type": "bytes"
        }
      ],
      "name": "onERC721Received",
      "outputs": [
        {
          "internalType": "bytes4",
          "name": "",
          "type": "bytes4"
        }
      ],
      "stateMutability": "nonpayable",
      "type": "function"
    },
    {
      "inputs": [
        {
          "internalType": "uint256",
          "name": "_tokenId",
          "type": "uint256"
        }
      ],
      "name": "ownerOf",
      "outputs": [
        {
          "internalType": "address",
          "name": "_owner",
          "type": "address"
        }
      ],
      "stateMutability": "view",
      "type": "function"
    },
    {
      "inputs": [
        {
          "internalType": "address",
          "name": "_from",
          "type": "address"
        },
        {
          "internalType": "address",
          "name": "_to",
          "type": "address"
        },
        {
          "internalType": "uint256",
          "name": "_tokenId",
          "type": "uint256"
        }
      ],
      "name": "safeTransferFrom",
      "outputs": [],
      "stateMutability": "nonpayable",
      "type": "function"
    },
    {
      "inputs": [
        {
          "internalType": "address",
          "name": "_from",
          "type": "address"
        },
        {
          "internalType": "address",
          "name": "_to",
          "type": "address"
        },
        {
          "internalType": "uint256",
          "name": "_tokenId",
          "type": "uint256"
        },
        {
          "internalType": "bytes",
          "name": "_data",
          "type": "bytes"
        }
      ],
      "name": "safeTransferFrom",
      "outputs": [],
      "stateMutability": "nonpayable",
      "type": "function"
    },
    {
      "inputs": [
        {
          "internalType": "address",
          "name": "_operator",
          "type": "address"
        },
        {
          "internalType": "bool",
          "name": "_approved",
          "type": "bool"
        }
      ],
      "name": "setApprovalForAll",
      "outputs": [],
      "stateMutability": "nonpayable",
      "type": "function"
    },
    {
      "inputs": [
        {
          "internalType": "bytes4",
          "name": "_interfaceID",
          "type": "bytes4"
        }
      ],
      "name": "supportsInterface",
      "outputs": [
        {
          "internalType": "bool",
          "name": "",
          "type": "bool"
        }
      ],
      "stateMutability": "view",
      "type": "function"
    },
    {
      "inputs": [],
      "name": "symbol",
      "outputs": [
        {
          "internalType": "string",
          "name": "",
          "type": "string"
        }
      ],
      "stateMutability": "view",
      "type": "function"
    },
    {
      "inputs": [
        {
          "internalType": "uint256",
          "name": "_tokenId",
          "type": "uint256"
        }
      ],
      "name": "tokenURI",
      "outputs": [
        {
          "internalType": "string",
          "name": "",
          "type": "string"
        }
      ],
      "stateMutability": "view",
      "type": "function"
    },
    {
      "inputs": [
        {
          "internalType": "uint256",
          "name": "",
          "type": "uint256"
        }
      ],
      "name": "tokens",
      "outputs": [
        {
          "internalType": "uint256",
          "name": "",
          "type": "uint256"
        }
      ],
      "stateMutability": "view",
      "type": "function"
    },
    {
      "inputs": [
        {
          "internalType": "address",
          "name": "_owner",
          "type": "address"
        }
      ],
      "name": "tokensByOwner",
      "outputs": [
        {
          "internalType": "uint256[]",
          "name": "",
          "type": "uint256[]"
        }
      ],
      "stateMutability": "view",
      "type": "function"
    },
    {
      "inputs": [
        {
          "internalType": "address",
          "name": "_from",
          "type": "address"
        },
        {
          "internalType": "address",
          "name": "_to",
          "type": "address"
        },
        {
          "internalType": "uint256",
          "name": "_tokenId",
          "type": "uint256"
        }
      ],
      "name": "transferFrom",
      "outputs": [],
      "stateMutability": "nonpayable",
      "type": "function"
    },
    {
      "inputs": [],
      "name": "totalSupply",
      "outputs": [
        {
          "internalType": "uint256",
          "name": "",
          "type": "uint256"
        }
      ],
      "stateMutability": "view",
      "type": "function"
    },
    {
      "inputs": [
        {
          "internalType": "uint256",
          "name": "_index",
          "type": "uint256"
        }
      ],
      "name": "tokenByIndex",
      "outputs": [
        {
          "internalType": "uint256",
          "name": "",
          "type": "uint256"
        }
      ],
      "stateMutability": "view",
      "type": "function"
    },
    {
      "inputs": [
        {
          "internalType": "address",
          "name": "_owner",
          "type": "address"
        },
        {
          "internalType": "uint256",
          "name": "_index",
          "type": "uint256"
        }
      ],
      "name": "tokenOfOwnerByIndex",
      "outputs": [
        {
          "internalType": "uint256",
          "name": "",
          "type": "uint256"
        }
      ],
      "stateMutability": "view",
      "type": "function"
    }
  ],
  "bytecode": "0x608060405260006003553480156200001657600080fd5b5060405162003ff338038062003ff383398181016040528101906200003c919062000372565b818160016000806301ffc9a760e01b7bffffffffffffffffffffffffffffffffffffffffffffffffffffffff1916815260200190815260200160002060006101000a81548160ff02191690831515021790555060016000806380ac58cd60e01b7bffffffffffffffffffffffffffffffffffffffffffffffffffffffff1916815260200190815260200160002060006101000a81548160ff0219169083151502179055506001600080635b5e139f60e01b7bffffffffffffffffffffffffffffffffffffffffffffffffffffffff1916815260200190815260200160002060006101000a81548160ff021916908315150217905550600160008063150b7a0260e01b7bffffffffffffffffffffffffffffffffffffffffffffffffffffffff1916815260200190815260200160002060006101000a81548160ff02191690831515021790555081600290805190602001906200019a92919062000250565b508060019080519060200190620001b392919062000250565b5033600560006101000a81548173ffffffffffffffffffffffffffffffffffffffff021916908373ffffffffffffffffffffffffffffffffffffffff1602179055505050600160008063780e9d6360e01b7bffffffffffffffffffffffffffffffffffffffffffffffffffffffff1916815260200190815260200160002060006101000a81548160ff021916908315150217905550505062000555565b8280546200025e906200047a565b90600052602060002090601f016020900481019282620002825760008555620002ce565b82601f106200029d57805160ff1916838001178555620002ce565b82800160010185558215620002ce579182015b82811115620002cd578251825591602001919060010190620002b0565b5b509050620002dd9190620002e1565b5090565b5b80821115620002fc576000816000905550600101620002e2565b5090565b60006200031762000311846200040e565b620003e5565b9050828152602081018484840111156200033057600080fd5b6200033d84828562000444565b509392505050565b600082601f8301126200035757600080fd5b81516200036984826020860162000300565b91505092915050565b600080604083850312156200038657600080fd5b600083015167ffffffffffffffff811115620003a157600080fd5b620003af8582860162000345565b925050602083015167ffffffffffffffff811115620003cd57600080fd5b620003db8582860162000345565b9150509250929050565b6000620003f162000404565b9050620003ff8282620004b0565b919050565b6000604051905090565b600067ffffffffffffffff8211156200042c576200042b62000515565b5b620004378262000544565b9050602081019050919050565b60005b838110156200046457808201518184015260208101905062000447565b8381111562000474576000848401525b50505050565b600060028204905060018216806200049357607f821691505b60208210811415620004aa57620004a9620004e6565b5b50919050565b620004bb8262000544565b810181811067ffffffffffffffff82111715620004dd57620004dc62000515565b5b80604052505050565b7f4e487b7100000000000000000000000000000000000000000000000000000000600052602260045260246000fd5b7f4e487b7100000000000000000000000000000000000000000000000000000000600052604160045260246000fd5b6000601f19601f8301169050919050565b613a8e80620005656000396000f3fe608060405234801561001057600080fd5b50600436106101425760003560e01c806342966c68116100b857806395d89b411161007c57806395d89b41146103d3578063a22cb465146103f1578063b88d4fde1461040d578063ba7aef4314610429578063c87b56dd14610459578063e985e9c51461048957610142565b806342966c68146102f75780634f64b2be146103135780634f6ccce7146103435780636352211e1461037357806370a08231146103a357610142565b80630e7746501161010a5780630e77465014610211578063150b7a021461024157806318160ddd1461027157806323b872dd1461028f5780632f745c59146102ab57806342842e0e146102db57610142565b806301ffc9a71461014757806306fdde0314610177578063081812fc14610195578063095ea7b3146101c55780630d381a28146101e1575b600080fd5b610161600480360381019061015c9190612f49565b6104b9565b60405161016e9190613347565b60405180910390f35b61017f610520565b60405161018c919061337d565b60405180910390f35b6101af60048036038101906101aa9190612f9b565b6105b2565b6040516101bc91906132be565b60405180910390f35b6101df60048036038101906101da9190612e98565b610694565b005b6101fb60048036038101906101f69190612cbc565b6109d6565b6040516102089190613325565b60405180910390f35b61022b60048036038101906102269190612ed4565b610a6d565b6040516102389190613325565b60405180910390f35b61025b60048036038101906102569190612d70565b610e26565b6040516102689190613362565b60405180910390f35b610279610e3b565b604051610286919061353f565b60405180910390f35b6102a960048036038101906102a49190612d21565b610e48565b005b6102c560048036038101906102c09190612e98565b6111b6565b6040516102d2919061353f565b60405180910390f35b6102f560048036038101906102f09190612d21565b6112c6565b005b610311600480360381019061030c9190612f9b565b6112e6565b005b61032d60048036038101906103289190612f9b565b6112f2565b60405161033a919061353f565b60405180910390f35b61035d60048036038101906103589190612f9b565b611316565b60405161036a919061353f565b60405180910390f35b61038d60048036038101906103889190612f9b565b6113ab565b60405161039a91906132be565b60405180910390f35b6103bd60048036038101906103b89190612cbc565b611458565b6040516103ca919061353f565b60405180910390f35b6103db6114d9565b6040516103e8919061337d565b60405180910390f35b61040b60048036038101906104069190612df0565b61156b565b005b61042760048036038101906104229190612d70565b611668565b005b610443600480360381019061043e9190612e2c565b6116bf565b6040516104509190613325565b60405180910390f35b610473600480360381019061046e9190612f9b565b6117aa565b604051610480919061337d565b60405180910390f35b6104a3600480360381019061049e9190612ce5565b61184f565b6040516104b09190613347565b60405180910390f35b6000806000837bffffffffffffffffffffffffffffffffffffffffffffffffffffffff19167bffffffffffffffffffffffffffffffffffffffffffffffffffffffff1916815260200190815260200160002060009054906101000a900460ff169050919050565b60606002805461052f906136fd565b80601f016020809104026020016040519081016040528092919081815260200182805461055b906136fd565b80156105a85780601f1061057d576101008083540402835291602001916105a8565b820191906000526020600020905b81548152906001019060200180831161058b57829003601f168201915b5050505050905090565b600081600073ffffffffffffffffffffffffffffffffffffffff166008600083815260200190815260200160002060009054906101000a900473ffffffffffffffffffffffffffffffffffffffff1673ffffffffffffffffffffffffffffffffffffffff161415610658576040517f08c379a000000000000000000000000000000000000000000000000000000000815260040161064f906134bf565b60405180910390fd5b600b600084815260200190815260200160002060009054906101000a900473ffffffffffffffffffffffffffffffffffffffff16915050919050565b8060006008600083815260200190815260200160002060009054906101000a900473ffffffffffffffffffffffffffffffffffffffff1690503373ffffffffffffffffffffffffffffffffffffffff168173ffffffffffffffffffffffffffffffffffffffff16148061078d5750600c60008273ffffffffffffffffffffffffffffffffffffffff1673ffffffffffffffffffffffffffffffffffffffff16815260200190815260200160002060003373ffffffffffffffffffffffffffffffffffffffff1673ffffffffffffffffffffffffffffffffffffffff16815260200190815260200160002060009054906101000a900460ff165b6107cc576040517f08c379a00000000000000000000000000000000000000000000000000000000081526004016107c39061349f565b60405180910390fd5b82600073ffffffffffffffffffffffffffffffffffffffff166008600083815260200190815260200160002060009054906101000a900473ffffffffffffffffffffffffffffffffffffffff1673ffffffffffffffffffffffffffffffffffffffff161415610870576040517f08c379a0000000000000000000000000000000000000000000000000000000008152600401610867906134bf565b60405180910390fd5b60006008600086815260200190815260200160002060009054906101000a900473ffffffffffffffffffffffffffffffffffffffff1690508073ffffffffffffffffffffffffffffffffffffffff168673ffffffffffffffffffffffffffffffffffffffff161415610917576040517f08c379a000000000000000000000000000000000000000000000000000000000815260040161090e9061341f565b60405180910390fd5b85600b600087815260200190815260200160002060006101000a81548173ffffffffffffffffffffffffffffffffffffffff021916908373ffffffffffffffffffffffffffffffffffffffff1602179055508573ffffffffffffffffffffffffffffffffffffffff168173ffffffffffffffffffffffffffffffffffffffff167f8c5be1e5ebec7d5bd14f71427d1e84f3dd0314c0f7b2291e5b200ac8c7c3b925876040516109c6919061353f565b60405180910390a3505050505050565b6060600960008373ffffffffffffffffffffffffffffffffffffffff1673ffffffffffffffffffffffffffffffffffffffff168152602001908152602001600020805480602002602001604051908101604052809291908181526020018280548015610a6157602002820191906000526020600020905b815481526020019060010190808311610a4d575b50505050509050919050565b6060600560009054906101000a900473ffffffffffffffffffffffffffffffffffffffff1673ffffffffffffffffffffffffffffffffffffffff163373ffffffffffffffffffffffffffffffffffffffff1614610aff576040517f08c379a0000000000000000000000000000000000000000000000000000000008152600401610af6906133ff565b60405180910390fd5b600085859050118015610b155750600083839050115b610b54576040517f08c379a0000000000000000000000000000000000000000000000000000000008152600401610b4b9061343f565b60405180910390fd5b828290508585905014610b9c576040517f08c379a0000000000000000000000000000000000000000000000000000000008152600401610b939061347f565b60405180910390fd5b60008585905090508067ffffffffffffffff811115610be4577f4e487b7100000000000000000000000000000000000000000000000000000000600052604160045260246000fd5b604051908082528060200260200182016040528015610c125781602001602082028036833780820191505090505b50915060005b81811015610e1c576000858583818110610c5b577f4e487b7100000000000000000000000000000000000000000000000000000000600052603260045260246000fd5b9050602002810190610c6d919061355a565b8080601f016020809104026020016040519081016040528093929190818152602001838380828437600081840152601f19601f820116905080830192505050505050509050610100815110610cf7576040517f08c379a0000000000000000000000000000000000000000000000000000000008152600401610cee906133df565b60405180910390fd5b6000610d52898985818110610d35577f4e487b7100000000000000000000000000000000000000000000000000000000600052603260045260246000fd5b9050602002016020810190610d4a9190612cbc565b8360016118e3565b905060005b8151811015610e0657818181518110610d99577f4e487b7100000000000000000000000000000000000000000000000000000000600052603260045260246000fd5b60200260200101518660018851610db09190613622565b81518110610de7577f4e487b7100000000000000000000000000000000000000000000000000000000600052603260045260246000fd5b6020026020010181815250508080610dfe9061372f565b915050610d57565b5050508080610e149061372f565b915050610c18565b5050949350505050565b600063150b7a0260e01b905095945050505050565b6000600480549050905090565b8060006008600083815260200190815260200160002060009054906101000a900473ffffffffffffffffffffffffffffffffffffffff1690503373ffffffffffffffffffffffffffffffffffffffff168173ffffffffffffffffffffffffffffffffffffffff161480610f1957503373ffffffffffffffffffffffffffffffffffffffff16600b600084815260200190815260200160002060009054906101000a900473ffffffffffffffffffffffffffffffffffffffff1673ffffffffffffffffffffffffffffffffffffffff16145b80610faa5750600c60008273ffffffffffffffffffffffffffffffffffffffff1673ffffffffffffffffffffffffffffffffffffffff16815260200190815260200160002060003373ffffffffffffffffffffffffffffffffffffffff1673ffffffffffffffffffffffffffffffffffffffff16815260200190815260200160002060009054906101000a900460ff165b610fe9576040517f08c379a0000000000000000000000000000000000000000000000000000000008152600401610fe0906134df565b60405180910390fd5b82600073ffffffffffffffffffffffffffffffffffffffff166008600083815260200190815260200160002060009054906101000a900473ffffffffffffffffffffffffffffffffffffffff1673ffffffffffffffffffffffffffffffffffffffff16141561108d576040517f08c379a0000000000000000000000000000000000000000000000000000000008152600401611084906134bf565b60405180910390fd5b60006008600086815260200190815260200160002060009054906101000a900473ffffffffffffffffffffffffffffffffffffffff1690508673ffffffffffffffffffffffffffffffffffffffff168173ffffffffffffffffffffffffffffffffffffffff1614611133576040517f08c379a000000000000000000000000000000000000000000000000000000000815260040161112a9061351f565b60405180910390fd5b600073ffffffffffffffffffffffffffffffffffffffff168673ffffffffffffffffffffffffffffffffffffffff1614156111a3576040517f08c379a000000000000000000000000000000000000000000000000000000000815260040161119a9061345f565b60405180910390fd5b6111ad8686611b60565b50505050505050565b6000600960008473ffffffffffffffffffffffffffffffffffffffff1673ffffffffffffffffffffffffffffffffffffffff16815260200190815260200160002080549050821061123c576040517f08c379a0000000000000000000000000000000000000000000000000000000008152600401611233906134ff565b60405180910390fd5b600960008473ffffffffffffffffffffffffffffffffffffffff1673ffffffffffffffffffffffffffffffffffffffff16815260200190815260200160002082815481106112b3577f4e487b7100000000000000000000000000000000000000000000000000000000600052603260045260246000fd5b9060005260206000200154905092915050565b6112e183838360405180602001604052806000815250611c1f565b505050565b6112ef816120d0565b50565b6004818154811061130257600080fd5b906000526020600020016000915090505481565b6000600480549050821061135f576040517f08c379a0000000000000000000000000000000000000000000000000000000008152600401611356906134ff565b60405180910390fd5b60048281548110611399577f4e487b7100000000000000000000000000000000000000000000000000000000600052603260045260246000fd5b90600052602060002001549050919050565b60006008600083815260200190815260200160002060009054906101000a900473ffffffffffffffffffffffffffffffffffffffff169050600073ffffffffffffffffffffffffffffffffffffffff168173ffffffffffffffffffffffffffffffffffffffff161415611453576040517f08c379a000000000000000000000000000000000000000000000000000000000815260040161144a906134bf565b60405180910390fd5b919050565b60008073ffffffffffffffffffffffffffffffffffffffff168273ffffffffffffffffffffffffffffffffffffffff1614156114c9576040517f08c379a00000000000000000000000000000000000000000000000000000000081526004016114c09061345f565b60405180910390fd5b6114d2826123b3565b9050919050565b6060600180546114e8906136fd565b80601f0160208091040260200160405190810160405280929190818152602001828054611514906136fd565b80156115615780601f1061153657610100808354040283529160200191611561565b820191906000526020600020905b81548152906001019060200180831161154457829003601f168201915b5050505050905090565b80600c60003373ffffffffffffffffffffffffffffffffffffffff1673ffffffffffffffffffffffffffffffffffffffff16815260200190815260200160002060008473ffffffffffffffffffffffffffffffffffffffff1673ffffffffffffffffffffffffffffffffffffffff16815260200190815260200160002060006101000a81548160ff0219169083151502179055508173ffffffffffffffffffffffffffffffffffffffff163373ffffffffffffffffffffffffffffffffffffffff167f17307eab39ab6107e8899845ad3d59bd9653f200f220920489ca2b5937696c318360405161165c9190613347565b60405180910390a35050565b6116b885858585858080601f016020809104026020016040519081016040528093929190818152602001838380828437600081840152601f19601f82011690508083019250505050505050611c1f565b5050505050565b6060600560009054906101000a900473ffffffffffffffffffffffffffffffffffffffff1673ffffffffffffffffffffffffffffffffffffffff163373ffffffffffffffffffffffffffffffffffffffff1614611751576040517f08c379a0000000000000000000000000000000000000000000000000000000008152600401611748906133ff565b60405180910390fd5b6117a08585858080601f016020809104026020016040519081016040528093929190818152602001838380828437600081840152601f19601f82011690508083019250505050505050846118e3565b9050949350505050565b60606007600083815260200190815260200160002080546117ca906136fd565b80601f01602080910402602001604051908101604052809291908181526020018280546117f6906136fd565b80156118435780601f1061181857610100808354040283529160200191611843565b820191906000526020600020905b81548152906001019060200180831161182657829003601f168201915b50505050509050919050565b6000600c60008473ffffffffffffffffffffffffffffffffffffffff1673ffffffffffffffffffffffffffffffffffffffff16815260200190815260200160002060008373ffffffffffffffffffffffffffffffffffffffff1673ffffffffffffffffffffffffffffffffffffffff16815260200190815260200160002060009054906101000a900460ff16905092915050565b6060600073ffffffffffffffffffffffffffffffffffffffff168473ffffffffffffffffffffffffffffffffffffffff161415611955576040517f08c379a000000000000000000000000000000000000000000000000000000000815260040161194c9061345f565b60405180910390fd5b6101008351111561199b576040517f08c379a0000000000000000000000000000000000000000000000000000000008152600401611992906133df565b60405180910390fd5b8167ffffffffffffffff8111156119db577f4e487b7100000000000000000000000000000000000000000000000000000000600052604160045260246000fd5b604051908082528060200260200182016040528015611a095781602001602082028036833780820191505090505b50905060005b82811015611b5857600060036000815480929190611a2c9061372f565b919050559050611a3c86826123ff565b8573ffffffffffffffffffffffffffffffffffffffff16600073ffffffffffffffffffffffffffffffffffffffff167fddf252ad1be2c89b69c2b068fc378daa952ba7f163c4a11628f55a4df523b3ef83604051611a9a919061353f565b60405180910390a3611aac81866125c3565b600481908060018154018082558091505060019003906000526020600020016000909190919091505580838381518110611b0f577f4e487b7100000000000000000000000000000000000000000000000000000000600052603260045260246000fd5b6020026020010181815250506001600480549050611b2d9190613622565b6006600083815260200190815260200160002081905550508080611b509061372f565b915050611a0f565b509392505050565b60006008600083815260200190815260200160002060009054906101000a900473ffffffffffffffffffffffffffffffffffffffff169050611ba182612694565b611bab8183612735565b611bb583836123ff565b8273ffffffffffffffffffffffffffffffffffffffff168173ffffffffffffffffffffffffffffffffffffffff167fddf252ad1be2c89b69c2b068fc378daa952ba7f163c4a11628f55a4df523b3ef84604051611c12919061353f565b60405180910390a3505050565b8160006008600083815260200190815260200160002060009054906101000a900473ffffffffffffffffffffffffffffffffffffffff1690503373ffffffffffffffffffffffffffffffffffffffff168173ffffffffffffffffffffffffffffffffffffffff161480611cf057503373ffffffffffffffffffffffffffffffffffffffff16600b600084815260200190815260200160002060009054906101000a900473ffffffffffffffffffffffffffffffffffffffff1673ffffffffffffffffffffffffffffffffffffffff16145b80611d815750600c60008273ffffffffffffffffffffffffffffffffffffffff1673ffffffffffffffffffffffffffffffffffffffff16815260200190815260200160002060003373ffffffffffffffffffffffffffffffffffffffff1673ffffffffffffffffffffffffffffffffffffffff16815260200190815260200160002060009054906101000a900460ff165b611dc0576040517f08c379a0000000000000000000000000000000000000000000000000000000008152600401611db7906134df565b60405180910390fd5b83600073ffffffffffffffffffffffffffffffffffffffff166008600083815260200190815260200160002060009054906101000a900473ffffffffffffffffffffffffffffffffffffffff1673ffffffffffffffffffffffffffffffffffffffff161415611e64576040517f08c379a0000000000000000000000000000000000000000000000000000000008152600401611e5b906134bf565b60405180910390fd5b60006008600087815260200190815260200160002060009054906101000a900473ffffffffffffffffffffffffffffffffffffffff1690508773ffffffffffffffffffffffffffffffffffffffff168173ffffffffffffffffffffffffffffffffffffffff1614611f0a576040517f08c379a0000000000000000000000000000000000000000000000000000000008152600401611f019061351f565b60405180910390fd5b600073ffffffffffffffffffffffffffffffffffffffff168773ffffffffffffffffffffffffffffffffffffffff161415611f7a576040517f08c379a0000000000000000000000000000000000000000000000000000000008152600401611f719061345f565b60405180910390fd5b611f848787611b60565b611fa38773ffffffffffffffffffffffffffffffffffffffff16612a35565b156120c65760008773ffffffffffffffffffffffffffffffffffffffff1663150b7a02338b8a8a6040518563ffffffff1660e01b8152600401611fe994939291906132d9565b602060405180830381600087803b15801561200357600080fd5b505af1158015612017573d6000803e3d6000fd5b505050506040513d601f19601f8201168201806040525081019061203b9190612f72565b905063150b7a0260e01b7bffffffffffffffffffffffffffffffffffffffffffffffffffffffff1916817bffffffffffffffffffffffffffffffffffffffffffffffffffffffff1916146120c4576040517f08c379a00000000000000000000000000000000000000000000000000000000081526004016120bb906133bf565b60405180910390fd5b505b5050505050505050565b80600073ffffffffffffffffffffffffffffffffffffffff166008600083815260200190815260200160002060009054906101000a900473ffffffffffffffffffffffffffffffffffffffff1673ffffffffffffffffffffffffffffffffffffffff161415612174576040517f08c379a000000000000000000000000000000000000000000000000000000000815260040161216b906134bf565b60405180910390fd5b60006008600084815260200190815260200160002060009054906101000a900473ffffffffffffffffffffffffffffffffffffffff1690506121b583612694565b6121bf8184612735565b600073ffffffffffffffffffffffffffffffffffffffff168173ffffffffffffffffffffffffffffffffffffffff167fddf252ad1be2c89b69c2b068fc378daa952ba7f163c4a11628f55a4df523b3ef8560405161221d919061353f565b60405180910390a36000600760008581526020019081526020016000208054612245906136fd565b90501461226c5760076000848152602001908152602001600020600061226b9190612a48565b5b600060066000858152602001908152602001600020549050600060016004805490506122989190613622565b90506000600482815481106122d6577f4e487b7100000000000000000000000000000000000000000000000000000000600052603260045260246000fd5b90600052602060002001549050806004848154811061231e577f4e487b7100000000000000000000000000000000000000000000000000000000600052603260045260246000fd5b90600052602060002001819055506004805480612364577f4e487b7100000000000000000000000000000000000000000000000000000000600052603160045260246000fd5b6001900381819060005260206000200160009055905582600660008381526020019081526020016000208190555060006006600088815260200190815260200160002081905550505050505050565b6000600960008373ffffffffffffffffffffffffffffffffffffffff1673ffffffffffffffffffffffffffffffffffffffff168152602001908152602001600020805490509050919050565b600073ffffffffffffffffffffffffffffffffffffffff166008600083815260200190815260200160002060009054906101000a900473ffffffffffffffffffffffffffffffffffffffff1673ffffffffffffffffffffffffffffffffffffffff16146124a1576040517f08c379a00000000000000000000000000000000000000000000000000000000081526004016124989061339f565b60405180910390fd5b816008600083815260200190815260200160002060006101000a81548173ffffffffffffffffffffffffffffffffffffffff021916908373ffffffffffffffffffffffffffffffffffffffff160217905550600960008373ffffffffffffffffffffffffffffffffffffffff1673ffffffffffffffffffffffffffffffffffffffff1681526020019081526020016000208190806001815401808255809150506001900390600052602060002001600090919091909150556001600960008473ffffffffffffffffffffffffffffffffffffffff1673ffffffffffffffffffffffffffffffffffffffff168152602001908152602001600020805490506125a89190613622565b600a6000838152602001908152602001600020819055505050565b81600073ffffffffffffffffffffffffffffffffffffffff166008600083815260200190815260200160002060009054906101000a900473ffffffffffffffffffffffffffffffffffffffff1673ffffffffffffffffffffffffffffffffffffffff161415612667576040517f08c379a000000000000000000000000000000000000000000000000000000000815260040161265e906134bf565b60405180910390fd5b8160076000858152602001908152602001600020908051906020019061268e929190612a88565b50505050565b600073ffffffffffffffffffffffffffffffffffffffff16600b600083815260200190815260200160002060009054906101000a900473ffffffffffffffffffffffffffffffffffffffff1673ffffffffffffffffffffffffffffffffffffffff161461273257600b600082815260200190815260200160002060006101000a81549073ffffffffffffffffffffffffffffffffffffffff02191690555b50565b8173ffffffffffffffffffffffffffffffffffffffff166008600083815260200190815260200160002060009054906101000a900473ffffffffffffffffffffffffffffffffffffffff1673ffffffffffffffffffffffffffffffffffffffff16146127d6576040517f08c379a00000000000000000000000000000000000000000000000000000000081526004016127cd9061351f565b60405180910390fd5b6008600082815260200190815260200160002060006101000a81549073ffffffffffffffffffffffffffffffffffffffff02191690556000600a600083815260200190815260200160002054905060006001600960008673ffffffffffffffffffffffffffffffffffffffff1673ffffffffffffffffffffffffffffffffffffffff168152602001908152602001600020805490506128759190613622565b90508181146129a4576000600960008673ffffffffffffffffffffffffffffffffffffffff1673ffffffffffffffffffffffffffffffffffffffff16815260200190815260200160002082815481106128f7577f4e487b7100000000000000000000000000000000000000000000000000000000600052603260045260246000fd5b9060005260206000200154905080600960008773ffffffffffffffffffffffffffffffffffffffff1673ffffffffffffffffffffffffffffffffffffffff168152602001908152602001600020848154811061297c577f4e487b7100000000000000000000000000000000000000000000000000000000600052603260045260246000fd5b906000526020600020018190555082600a600083815260200190815260200160002081905550505b600960008573ffffffffffffffffffffffffffffffffffffffff1673ffffffffffffffffffffffffffffffffffffffff168152602001908152602001600020805480612a19577f4e487b7100000000000000000000000000000000000000000000000000000000600052603160045260246000fd5b6001900381819060005260206000200160009055905550505050565b600080823b905060008111915050919050565b508054612a54906136fd565b6000825580601f10612a665750612a85565b601f016020900490600052602060002090810190612a849190612b0e565b5b50565b828054612a94906136fd565b90600052602060002090601f016020900481019282612ab65760008555612afd565b82601f10612acf57805160ff1916838001178555612afd565b82800160010185558215612afd579182015b82811115612afc578251825591602001919060010190612ae1565b5b509050612b0a9190612b0e565b5090565b5b80821115612b27576000816000905550600101612b0f565b5090565b600081359050612b3a816139fc565b92915050565b60008083601f840112612b5257600080fd5b8235905067ffffffffffffffff811115612b6b57600080fd5b602083019150836020820283011115612b8357600080fd5b9250929050565b60008083601f840112612b9c57600080fd5b8235905067ffffffffffffffff811115612bb557600080fd5b602083019150836020820283011115612bcd57600080fd5b9250929050565b600081359050612be381613a13565b92915050565b600081359050612bf881613a2a565b92915050565b600081519050612c0d81613a2a565b92915050565b60008083601f840112612c2557600080fd5b8235905067ffffffffffffffff811115612c3e57600080fd5b602083019150836001820283011115612c5657600080fd5b9250929050565b60008083601f840112612c6f57600080fd5b8235905067ffffffffffffffff811115612c8857600080fd5b602083019150836001820283011115612ca057600080fd5b9250929050565b600081359050612cb681613a41565b92915050565b600060208284031215612cce57600080fd5b6000612cdc84828501612b2b565b91505092915050565b60008060408385031215612cf857600080fd5b6000612d0685828601612b2b565b9250506020612d1785828601612b2b565b9150509250929050565b600080600060608486031215612d3657600080fd5b6000612d4486828701612b2b565b9350506020612d5586828701612b2b565b9250506040612d6686828701612ca7565b9150509250925092565b600080600080600060808688031215612d8857600080fd5b6000612d9688828901612b2b565b9550506020612da788828901612b2b565b9450506040612db888828901612ca7565b935050606086013567ffffffffffffffff811115612dd557600080fd5b612de188828901612c13565b92509250509295509295909350565b60008060408385031215612e0357600080fd5b6000612e1185828601612b2b565b9250506020612e2285828601612bd4565b9150509250929050565b60008060008060608587031215612e4257600080fd5b6000612e5087828801612b2b565b945050602085013567ffffffffffffffff811115612e6d57600080fd5b612e7987828801612c5d565b93509350506040612e8c87828801612ca7565b91505092959194509250565b60008060408385031215612eab57600080fd5b6000612eb985828601612b2b565b9250506020612eca85828601612ca7565b9150509250929050565b60008060008060408587031215612eea57600080fd5b600085013567ffffffffffffffff811115612f0457600080fd5b612f1087828801612b40565b9450945050602085013567ffffffffffffffff811115612f2f57600080fd5b612f3b87828801612b8a565b925092505092959194509250565b600060208284031215612f5b57600080fd5b6000612f6984828501612be9565b91505092915050565b600060208284031215612f8457600080fd5b6000612f9284828501612bfe565b91505092915050565b600060208284031215612fad57600080fd5b6000612fbb84828501612ca7565b91505092915050565b6000612fd083836132a0565b60208301905092915050565b612fe581613656565b82525050565b6000612ff6826135c1565b61300081856135ef565b935061300b836135b1565b8060005b8381101561303c5781516130238882612fc4565b975061302e836135e2565b92505060018101905061300f565b5085935050505092915050565b61305281613668565b82525050565b61306181613674565b82525050565b6000613072826135cc565b61307c8185613600565b935061308c8185602086016136ca565b613095816137d6565b840191505092915050565b60006130ab826135d7565b6130b58185613611565b93506130c58185602086016136ca565b6130ce816137d6565b840191505092915050565b60006130e6600a83613611565b91506130f1826137e7565b602082019050919050565b6000613109601783613611565b915061311482613810565b602082019050919050565b600061312c600c83613611565b915061313782613839565b602082019050919050565b600061314f601683613611565b915061315a82613862565b602082019050919050565b6000613172601f83613611565b915061317d8261388b565b602082019050919050565b6000613195601f83613611565b91506131a0826138b4565b602082019050919050565b60006131b8600c83613611565b91506131c3826138dd565b602082019050919050565b60006131db602083613611565b91506131e682613906565b602082019050919050565b60006131fe601583613611565b91506132098261392f565b602082019050919050565b6000613221600d83613611565b915061322c82613958565b602082019050919050565b6000613244601e83613611565b915061324f82613981565b602082019050919050565b6000613267600d83613611565b9150613272826139aa565b602082019050919050565b600061328a600983613611565b9150613295826139d3565b602082019050919050565b6132a9816136c0565b82525050565b6132b8816136c0565b82525050565b60006020820190506132d36000830184612fdc565b92915050565b60006080820190506132ee6000830187612fdc565b6132fb6020830186612fdc565b61330860408301856132af565b818103606083015261331a8184613067565b905095945050505050565b6000602082019050818103600083015261333f8184612feb565b905092915050565b600060208201905061335c6000830184613049565b92915050565b60006020820190506133776000830184613058565b92915050565b6000602082019050818103600083015261339781846130a0565b905092915050565b600060208201905081810360008301526133b8816130d9565b9050919050565b600060208201905081810360008301526133d8816130fc565b9050919050565b600060208201905081810360008301526133f88161311f565b9050919050565b6000602082019050818103600083015261341881613142565b9050919050565b6000602082019050818103600083015261343881613165565b9050919050565b6000602082019050818103600083015261345881613188565b9050919050565b60006020820190508181036000830152613478816131ab565b9050919050565b60006020820190508181036000830152613498816131ce565b9050919050565b600060208201905081810360008301526134b8816131f1565b9050919050565b600060208201905081810360008301526134d881613214565b9050919050565b600060208201905081810360008301526134f881613237565b9050919050565b600060208201905081810360008301526135188161325a565b9050919050565b600060208201905081810360008301526135388161327d565b9050919050565b600060208201905061355460008301846132af565b92915050565b6000808335600160200384360303811261357357600080fd5b80840192508235915067ffffffffffffffff82111561359157600080fd5b6020830192506001820236038313156135a957600080fd5b509250929050565b6000819050602082019050919050565b600081519050919050565b600081519050919050565b600081519050919050565b6000602082019050919050565b600082825260208201905092915050565b600082825260208201905092915050565b600082825260208201905092915050565b600061362d826136c0565b9150613638836136c0565b92508282101561364b5761364a613778565b5b828203905092915050565b6000613661826136a0565b9050919050565b60008115159050919050565b60007fffffffff0000000000000000000000000000000000000000000000000000000082169050919050565b600073ffffffffffffffffffffffffffffffffffffffff82169050919050565b6000819050919050565b60005b838110156136e85780820151818401526020810190506136cd565b838111156136f7576000848401525b50505050565b6000600282049050600182168061371557607f821691505b60208210811415613729576137286137a7565b5b50919050565b600061373a826136c0565b91507fffffffffffffffffffffffffffffffffffffffffffffffffffffffffffffffff82141561376d5761376c613778565b5b600182019050919050565b7f4e487b7100000000000000000000000000000000000000000000000000000000600052601160045260246000fd5b7f4e487b7100000000000000000000000000000000000000000000000000000000600052602260045260246000fd5b6000601f19601f8301169050919050565b7f6e66742065786973747300000000000000000000000000000000000000000000600082015250565b7f6e6f742061626c6520746f2072656365697665206e6674000000000000000000600082015250565b7f75726920746f6f206c6f6e670000000000000000000000000000000000000000600082015250565b7f73686f756c6420626520726f6f74206163636f756e7400000000000000000000600082015250565b7f617070726f766564206164647265737320697320746f6b656e206f776e657200600082015250565b7f746172676574206c6973742073686f756c64206e6f7420626520656d70747900600082015250565b7f7a65726f20616464726573730000000000000000000000000000000000000000600082015250565b7f74617267657473276c656e677468206e6f7420657175616c20746f2075726973600082015250565b7f6e6f74206f776e6572206f72206f70657261746f720000000000000000000000600082015250565b7f6e6f742076616c6964206e667400000000000000000000000000000000000000600082015250565b7f6e6f74206f776e657220617070726f766564206f72206f70657261746f720000600082015250565b7f696e76616c696420696e64657800000000000000000000000000000000000000600082015250565b7f6e6f74206f776e65720000000000000000000000000000000000000000000000600082015250565b613a0581613656565b8114613a1057600080fd5b50565b613a1c81613668565b8114613a2757600080fd5b50565b613a3381613674565b8114613a3e57600080fd5b50565b613a4a816136c0565b8114613a5557600080fd5b5056fea2646970667358221220ce368f7174881378f634a7c74f6385c867765100e540cd37ed2bbe2d8e37136d64736f6c63430008040033",
  "immutableReferences": {},
  "source": "pragma solidity ^0.8.4;\n\nimport \"./NFT721Basic.sol\";\nimport \"./ERC721Enumerable.sol\";\n\n/**\n * @dev Optional enumeration implementation for ERC-721 non-fungible token standard.\n */\ncontract NFT721Enumerable is NFT721Basic, ERC721Enumerable {\n    /**\n     * @dev Contract constructor.\n     */\n    constructor(string memory name, string memory symbol)\n        public\n        NFT721Basic(name, symbol)\n    {\n        supportedInterfaces[0x780e9d63] = true; // ERC721Enumerable\n    }\n\n    /**\n     * @dev Returns the count of all existing NFTokens.\n     * @return Total supply of NFTs.\n     */\n    function totalSupply() external view override returns (uint256) {\n        return tokens.length;\n    }\n\n    /**\n     * @dev Returns NFT ID by its index.\n     * @param _index A counter less than `totalSupply()`.\n     * @return Token id.\n     */\n    function tokenByIndex(uint256 _index)\n        external\n        view\n        override\n        returns (uint256)\n    {\n        require(_index < tokens.length, \"invalid index\");\n        return tokens[_index];\n    }\n\n    /**\n     * @dev returns the n-th NFT ID from a list of owner's tokens.\n     * @param _owner Token owner's address.\n     * @param _index Index number representing n-th token in owner's list of tokens.\n     * @return Token id.\n     */\n    function tokenOfOwnerByIndex(address _owner, uint256 _index)\n        external\n        view\n        override\n        returns (uint256)\n    {\n        require(_index < ownerToIds[_owner].length, \"invalid index\");\n        return ownerToIds[_owner][_index];\n    }\n}\n",
  "sourcePath": "/Users/lowesyang/Documents/Byterum/Products/NFT-GO/moonlight/erc721-contract/contracts/NFT721Enumerable.sol",
  "compiler": {
    "name": "solc",
    "version": "0.8.4+commit.c7e474f2.Emscripten.clang"
  },
  "schemaVersion": "3.4.1",
  "updatedAt": "2021-07-09T03:41:05.673Z",
  "devdoc": {
    "details": "Optional enumeration implementation for ERC-721 non-fungible token standard.",
    "kind": "dev",
    "methods": {
      "approve(address,uint256)": {
        "details": "Set or reaffirm the approved address for an NFT. This function can be changed to payable.",
        "params": {
          "_approved": "Address to be approved for the given NFT ID.",
          "_tokenId": "ID of the token to be approved."
        }
      },
      "balanceOf(address)": {
        "details": "Returns the number of NFTs owned by `_owner`. NFTs assigned to the zero address are considered invalid, and this function throws for queries about the zero address.",
        "params": {
          "_owner": "Address for whom to query the balance."
        },
        "returns": {
          "_0": "Balance of _owner."
        }
      },
      "burn(uint256)": {
        "details": "Burns a NFT.",
        "params": {
          "tokenId": "ID of the NFT to be burned."
        }
      },
      "constructor": {
        "details": "Contract constructor."
      },
      "getApproved(uint256)": {
        "details": "Get the approved address for a single NFT.",
        "params": {
          "_tokenId": "ID of the NFT to query the approval of."
        },
        "returns": {
          "_0": "Address that _tokenId is approved for."
        }
      },
      "isApprovedForAll(address,address)": {
        "details": "Checks if `_operator` is an approved operator for `_owner`.",
        "params": {
          "_operator": "The address that acts on behalf of the owner.",
          "_owner": "The address that owns the NFTs."
        },
        "returns": {
          "_0": "True if approved for all, false otherwise."
        }
      },
      "mint(address,string,uint256)": {
        "details": "Mints a new NFT.",
        "params": {
          "to": "The address that will own the minted NFT.",
          "uri": "of the NFT to be minted by the msg.sender."
        }
      },
      "mintMulti(address[],string[])": {
        "details": "Mints a new NFT.",
        "params": {
          "targets": "The address list that will own the minted NFT.",
          "uris": "Uri list to be assigned to minted NFT."
        }
      },
      "onERC721Received(address,address,uint256,bytes)": {
        "details": "The ERC721 smart contract calls this function on the recipient  after a `transfer`. This function MAY throw to revert and reject the  transfer. Return of other than the magic value MUST result in the  transaction being reverted.  Note: the contract address is always the message sender.",
        "params": {
          "_data": "Additional data with no specified format",
          "_from": "The address which previously owned the token",
          "_operator": "The address which called `safeTransferFrom` function",
          "_tokenId": "The NFT identifier which is being transferred"
        },
        "returns": {
          "_0": "`bytes4(keccak256(\"onERC721Received(address,address,uint256,bytes)\"))`  unless throwing"
        }
      },
      "ownerOf(uint256)": {
        "details": "Returns the address of the owner of the NFT. NFTs assigned to zero address are considered invalid, and queries about them do throw.",
        "params": {
          "_tokenId": "The identifier for an NFT."
        },
        "returns": {
          "_owner": "Address of _tokenId owner."
        }
      },
      "safeTransferFrom(address,address,uint256)": {
        "details": "Transfers the ownership of an NFT from one address to another address. This function can be changed to payable.",
        "params": {
          "_from": "The current owner of the NFT.",
          "_to": "The new owner.",
          "_tokenId": "The NFT to transfer."
        }
      },
      "safeTransferFrom(address,address,uint256,bytes)": {
        "details": "Transfers the ownership of an NFT from one address to another address. This function can be changed to payable.",
        "params": {
          "_data": "Additional data with no specified format, sent in call to `_to`.",
          "_from": "The current owner of the NFT.",
          "_to": "The new owner.",
          "_tokenId": "The NFT to transfer."
        }
      },
      "setApprovalForAll(address,bool)": {
        "details": "Enables or disables approval for a third party (\"operator\") to manage all of `msg.sender`'s assets. It also emits the ApprovalForAll event.",
        "params": {
          "_approved": "True if the operators is approved, false to revoke approval.",
          "_operator": "Address to add to the set of authorized operators."
        }
      },
      "supportsInterface(bytes4)": {
        "details": "Function to check which interfaces are suported by this contract.",
        "params": {
          "_interfaceID": "Id of the interface."
        },
        "returns": {
          "_0": "True if _interfaceID is supported, false otherwise."
        }
      },
      "tokenByIndex(uint256)": {
        "details": "Returns NFT ID by its index.",
        "params": {
          "_index": "A counter less than `totalSupply()`."
        },
        "returns": {
          "_0": "Token id."
        }
      },
      "tokenOfOwnerByIndex(address,uint256)": {
        "details": "returns the n-th NFT ID from a list of owner's tokens.",
        "params": {
          "_index": "Index number representing n-th token in owner's list of tokens.",
          "_owner": "Token owner's address."
        },
        "returns": {
          "_0": "Token id."
        }
      },
      "tokenURI(uint256)": {
        "details": "Throws if `_tokenId` is not a valid NFT. URIs are defined in RFC  3986. The URI may point to a JSON file that conforms to the \"ERC721  Metadata JSON Schema\"."
      },
      "totalSupply()": {
        "details": "Returns the count of all existing NFTokens.",
        "returns": {
          "_0": "Total supply of NFTs."
        }
      },
      "transferFrom(address,address,uint256)": {
        "details": "Throws unless `msg.sender` is the current owner, an authorized operator, or the approved address for this NFT. Throws if `_from` is not the current owner. Throws if `_to` is the zero address. Throws if `_tokenId` is not a valid NFT. This function can be changed to payable.",
        "params": {
          "_from": "The current owner of the NFT.",
          "_to": "The new owner.",
          "_tokenId": "The NFT to transfer."
        }
      }
    },
    "version": 1
  },
  "userdoc": {
    "kind": "user",
    "methods": {
      "approve(address,uint256)": {
        "notice": "The zero address indicates there is no approved address. Throws unless `msg.sender` is the current NFT owner, or an authorized operator of the current owner."
      },
      "getApproved(uint256)": {
        "notice": "Throws if `_tokenId` is not a valid NFT."
      },
      "name()": {
        "notice": "A descriptive name for a collection of NFTs in this contract"
      },
      "onERC721Received(address,address,uint256,bytes)": {
        "notice": "Handle the receipt of an NFT"
      },
      "safeTransferFrom(address,address,uint256)": {
        "notice": "This works identically to the other function with an extra data parameter, except this function just sets data to \"\""
      },
      "safeTransferFrom(address,address,uint256,bytes)": {
        "notice": "Throws unless `msg.sender` is the current owner, an authorized operator, or the approved address for this NFT. Throws if `_from` is not the current owner. Throws if `_to` is the zero address. Throws if `_tokenId` is not a valid NFT. When transfer is complete, this function checks if `_to` is a smart contract (code size > 0). If so, it calls `onERC721Received` on `_to` and throws if the return value is not `bytes4(keccak256(\"onERC721Received(address,uint256,bytes)\"))`."
      },
      "setApprovalForAll(address,bool)": {
        "notice": "This works even if sender doesn't own any tokens at the time."
      },
      "symbol()": {
        "notice": "An abbreviated name for NFTs in this contract"
      },
      "tokenURI(uint256)": {
        "notice": "A distinct Uniform Resource Identifier (URI) for a given asset."
      },
      "tokensByOwner(address)": {
        "notice": "Return the tokens owned by an address."
      },
      "transferFrom(address,address,uint256)": {
        "notice": "The caller is responsible to confirm that `_to` is capable of receiving NFTs or else they maybe be permanently lost."
      }
    },
    "version": 1
  }
}