{
  "contractName": "SupportsInterface",
  "abi": [
    {
      "inputs": [],
      "stateMutability": "nonpayable",
      "type": "constructor"
    },
    {
      "inputs": [
        {
          "internalType": "bytes4",
          "name": "_interfaceID",
          "type": "bytes4"
        }
      ],
      "name": "supportsInterface",
      "outputs": [
        {
          "internalType": "bool",
          "name": "",
          "type": "bool"
        }
      ],
      "stateMutability": "view",
      "type": "function"
    }
  ],
  "bytecode": "0x608060405234801561001057600080fd5b5060016000806301ffc9a760e01b7bffffffffffffffffffffffffffffffffffffffffffffffffffffffff1916815260200190815260200160002060006101000a81548160ff0219169083151502179055506101b4806100716000396000f3fe608060405234801561001057600080fd5b506004361061002b5760003560e01c806301ffc9a714610030575b600080fd5b61004a600480360381019061004591906100dc565b610060565b6040516100579190610114565b60405180910390f35b6000806000837bffffffffffffffffffffffffffffffffffffffffffffffffffffffff19167bffffffffffffffffffffffffffffffffffffffffffffffffffffffff1916815260200190815260200160002060009054906101000a900460ff169050919050565b6000813590506100d681610167565b92915050565b6000602082840312156100ee57600080fd5b60006100fc848285016100c7565b91505092915050565b61010e8161012f565b82525050565b60006020820190506101296000830184610105565b92915050565b60008115159050919050565b60007fffffffff0000000000000000000000000000000000000000000000000000000082169050919050565b6101708161013b565b811461017b57600080fd5b5056fea2646970667358221220fe67084f47738fd3f2c0bb3d6d4ad1de465bc723262ca7fcc4f761e76027440064736f6c63430008040033",
  "immutableReferences": {},
  "source": "pragma solidity ^0.8.4;\n\nimport \"./ERC165.sol\";\n\n/**\n * @dev Implementation of standard for detect smart contract interfaces.\n */\ncontract SupportsInterface is ERC165 {\n    /**\n     * @dev Mapping of supported intefraces.\n     * @notice You must not set element 0xffffffff to true.\n     */\n    mapping(bytes4 => bool) internal supportedInterfaces;\n\n    /**\n     * @dev Contract constructor.\n     */\n    constructor() public {\n        supportedInterfaces[0x01ffc9a7] = true; // ERC165\n    }\n\n    /**\n     * @dev Function to check which interfaces are suported by this contract.\n     * @param _interfaceID Id of the interface.\n     * @return True if _interfaceID is supported, false otherwise.\n     */\n    function supportsInterface(bytes4 _interfaceID)\n        external\n        view\n        override\n        returns (bool)\n    {\n        return supportedInterfaces[_interfaceID];\n    }\n}\n",
  "sourcePath": "/Users/lowesyang/Documents/Byterum/Products/NFT-GO/moonlight/erc721-contract/contracts/utils/support-interface.sol",
  "compiler": {
    "name": "solc",
    "version": "0.8.4+commit.c7e474f2.Emscripten.clang"
  },
  "schemaVersion": "3.4.1",
  "updatedAt": "2021-06-16T08:18:38.721Z",
  "devdoc": {
    "details": "Implementation of standard for detect smart contract interfaces.",
    "kind": "dev",
    "methods": {
      "constructor": {
        "details": "Contract constructor."
      },
      "supportsInterface(bytes4)": {
        "details": "Function to check which interfaces are suported by this contract.",
        "params": {
          "_interfaceID": "Id of the interface."
        },
        "returns": {
          "_0": "True if _interfaceID is supported, false otherwise."
        }
      }
    },
    "stateVariables": {
      "supportedInterfaces": {
        "details": "Mapping of supported intefraces."
      }
    },
    "version": 1
  },
  "userdoc": {
    "kind": "user",
    "methods": {},
    "version": 1
  }
}